:020000041000EA
:10000000002008205D0100101B0100101D010010E0
:100010001101001011010010110100101101001058
:100020001901001019010010190100101F01001022
:10003000110100101901001021010010230100100E
:100040001101001011010010110100101101001028
:100050001101001011010010110100101101001018
:100060001101001011010010110100101101001008
:1000700011010010110100101101001011010010F8
:1000800011010010110100101101001011010010E8
:1000900011010010110100101101001011010010D8
:1000A00011010010110100101101001011010010C8
:1000B00011010010110100101101001011010010B8
:1000C00011010010110100101101001011010010A8
:1000D0001101001011010010110100101101001098
:1000E0001101001011010010110100101101001088
:1000F0001101001011010010110100101101001078
:100100001101001011010010110100101101001067
:10011000EFF30580103800BE00BE00BE00BE00BE7A
:1001200000BE00BEF2EB8871D8460010FC460010FD
:10013000A001001090A31AE7D3DEFFFF42012110B7
:10014000FF01000078220100793512AB4FF000006A
:100150001E49086006C881F3088810474FF05040D8
:10016000006810B14FF00000F2E70DA40ECC00299A
:1001700002D000F012F8F9E71549164A002000E015
:1001800001C19142FCD11449884714498847144958
:10019000884700BEFDE701C901C29A42FBD3704700
:1001A000FC46001010010020C4DD0020B023011027
:1001B0000000082000000820B023011000100820D3
:1001C00000100820000000007047000008ED00E06B
:1001D000C4DD00200CEA0020611C00109D0300100B
:1001E000591C0010F8B500BF064B0749C91A891001
:1001F00048BF0131491003D0044B0BB101481847E7
:10020000704700BFC4DD0020C4DD002000000000F6
:1002100008B5054B1BB105490548AFF30080BDE8A3
:100220000840FFF7E1BF00BF0000000030E80020F9
:100230001843001011F0010208B50FD0124B012134
:100240009A6A124B0A201A60002200F0C9FB0122B0
:100250000221BDE808400A2000F0C2BB8B070ED582
:1002600002210A2000F0BCFB074B084A9B6A126877
:100270009B1AB3F5FA7F03D30122054B1A7008BD10
:1002800001221146E5E700BF00000B4020E80020F6
:10029000EEE9002038B5054601200C4600F018F9BB
:1002A000064A074902EA4032830103F1A04342F0C3
:1002B00011021D6059609C60DA6038BDF1E001FCFC
:1002C000100020504FF480332DE9F04186B01746DE
:1002D00002934FF00043064688460025059300F13F
:1002E0002F4407F1080302321B0304F5600443EABC
:1002F000C213240D43F0C04306340393E4B2254BEC
:1003000021460820049300F031FB2146092000F02B
:100310002DFB0121082000F0A7FB0121092000F09E
:10032000A3FB039B2A4623F0F85343F01063039387
:10033000414608233046009500F037FA059A164BDF
:10034000134043F0A45305932846214600F00EFBCA
:100350002846012100F026FB28460121013500F046
:100360002FFB082DF0D1039B3A4643F0C043039383
:10037000059B414623F0604323F4F84343F00043D8
:1003800043F4A0530593304602AB00F04BFA06B09D
:10039000BDE8F0810000045000FC0FE02DE9F041C1
:1003A00001F040FD0A2000F06DFB0A234FF000022F
:1003B00042EC44303A493B4800F0DEF90021C2B239
:1003C0003848FFF77FFF384E384B394DF61A314623
:1003D0003648FFF75FFF041E5BDB0A274FF001037F
:1003E00043EC44704FF0000848EC40702D4AFA206E
:1003F000136843F00103136001F039F948EC4470CD
:100400004FF050477B68580537D501220A20114626
:10041000284B00F015FB284F3B7893B34FF0504822
:10042000D8F80430590530D5244801F00BFD0023DD
:100430003B7001234FF0A042A340C2F8643402EBAA
:100440008413DA685201FCD4204600F03BF8154BC7
:1004500010211A6822F001021A604FF00042C5F81C
:10046000D020C5F8D020A2F13F52A2F5FF121160B2
:100470001A6842F001021A60A9E7012001F0F7F8BA
:10048000C0E7012001F0F3F8C6E7012001F0EFF822
:10049000C6E70B4801F0D6FC0120BDE8F08100BFA3
:1004A000A04400100000205020DD002000090020A2
:1004B0000010205035020010EEE9002031430010FA
:1004C000184300100146014800F095B884E8002068
:1004D00007B5054B0146009300220F23034800F0A7
:1004E00061F803B000BD00BF3E43001084E8002067
:1004F0000FB407B5049C074801F0A4FC3CB105A962
:100500002046019101F090FB034801F09BFC012083
:1005100001F0A0FB5C4300106A430010EFF3108071
:1005200072B6064BD3E8CF1F01220029FAD1C3E8E7
:10053000412F0029F6D1BFF35F8F7047BCE8002040
:100540000023034AC2E88F3F80F31088704700BF42
:10055000BCE80020CB08C25C012301F007018B40FE
:100560001A4214BF012000207047F8B505460C461A
:100570001746FFF7D3FF214606462846FFF7EAFF56
:1005800018B121463846FFF7B3FF0123E208A95C02
:1005900004F00704A3400B43AB543046BDE8F840D9
:1005A000FFF7CEBF2DE9F04105460E4614469846AA
:1005B000FFF7B4FF0746444502D94FF0FF340CE083
:1005C00021462846FFF7C6FF80B90123E20804F060
:1005D00007018B40A95C0B43AB543846FFF7B0FFD3
:1005E000002C05DA26B10698FFF782FF0134E2E716
:1005F0002046BDE8F08138B50C460546FFF78EFF72
:100600000122E1086B5C04F00704A24023EA020324
:100610006B54BDE83840FFF793BF0000044A1078E0
:10062000431CDBB2182B28BF10231370704700BF88
:1006300020DD002007B5054B0146009318221F233B
:100640000348FFF7AFFF03B000BD00BF6C430010CD
:10065000E8E300204FF0E022936843F000539360FA
:100660007047000000231A4603481918C1E88F2F6D
:100670000133202BF9D17047B1E8002010B5D0F834
:100680006841CB79DCB113F0010F1BD191F9053032
:10069000002B01DB934215D10123097900F12F4092
:1006A0008B40013B934000F56000084A000D52F872
:1006B000202013420CBF00206FF0080010BD13F083
:1006C000040FE2E76FF00A00F8E700BF00E1002046
:1006D000F8B504460F461546FFF7D0FF90B93E79AE
:1006E000B04210D3012304F12F400D4A00F5600001
:1006F000000DB34052F82010013BAB400B4342F8D1
:1007000020302846F8BD3B682A1833F810301232E2
:10071000B3F5005F38BF5B1944F822300130DFE7E2
:1007200000E1002000F12F40124B00F56000000DA9
:1007300010B553F820400123002A03FA01F303F116
:10074000FF33C1F120000DDB824210DC93402342D5
:100750000CBF10464FF0FF3010BD03FA00F22242EA
:10076000FAD001380028F8DA6FF00800F4E74FF00B
:10077000FF30F1E700E10020F8B50D460646FFF72F
:10078000CDFE95F90520074629793046FFF7CAFFC7
:10079000041E05DB224629463046FFF799FF044632
:1007A0003846FFF7CDFE2046F8BDF0B5D0F86841D9
:1007B000121B1F2A33D84FF0180C4FF400350CFBD6
:1007C000010E0EF54354DEF8DC70DEF8CC60E56017
:1007D0009DF81440002C14BF1F24002444F46044EE
:1007E00044F08004052B4FEA42150DD80CFB0100A4
:1007F00045EA8365C0F8DC50C0F8D840C0F8DC702A
:10080000C0F8CC600020F0BD45F0A0550532CEF810
:10081000DC50053BCEF8D84002F01F02E2E76FF053
:100820000400F0E770B5012504688D4024EA050452
:100830000460182463B304FB01041D68C4F8C850A5
:100840009D68C4F8D0505D68DB68C4F8CC50C4F82B
:10085000DC3018244FF0004501FB040303F58653F8
:100860001D611D614FF001338B408360012300F552
:10087000005601FB04000D1D083103FA05F502F0D6
:100880001F028B4035603360C0F8D820002070BD57
:100890004FF4803504FB0104C4F8C8504FF44025E0
:1008A000C4F8D0504FF4F835C4F8CC50CFE700006E
:1008B00030B5C40800F0070080008140074804F10B
:1008C0008C0540F8251003EB84031AB103F500539F
:1008D000196030BD03F54053FAE700BF00800240C5
:1008E0002DE9F84F4FF05043D3F800801A4B1B4FBF
:1008F00053F828901A4B0825B8F1000F18BF1F466F
:10090000DFF860A0DFF860B0EB080B3357F8236026
:10091000A5F108040EB1AC4204D30835282DF3D15B
:10092000BDE8F88F16F00F0112D05AF82830E340D6
:10093000DB070DD404F00702E308920001FA02F28B
:100940008C334BF82320B9F1000F01D02046C84763
:1009500036090134DEE700BFD8E3002048820240B8
:100960009082024070E80020008002400C4B10B5DD
:1009700003EB800253F8203002F5805483F04003EB
:1009800003F0C00323604FF48073C00000F1804087
:1009900000F5203002F540524160136010BD00BFE9
:1009A00004800340054A02EB800352F8202003F53F
:1009B0008053514001F001011960704704800340E9
:1009C000064B03EB800253F8203002F5805283EA95
:1009D000011303F030031360704700BF048003402D
:1009E0004FF0504330B41C68034D044B002C08BF3B
:1009F0002B4630BCFFF75CBF488202409082024029
:100A00004FF0504370B51E680B4D044655F8262034
:100A10003AB118B91520094900F0AEF945F8264059
:100A200070BD0028FCD045F8260004491520BDE81B
:100A3000704000F0BFB800BFD8E30020E10800100C
:100A400070B5144605460E461846FFF7D9FF2246F4
:100A500031462846FFF7C4FF2CB1BDE870400121A4
:100A6000152000F03BB870BD054B03EB8000402320
:100A700019B100F500500360704700F54050FAE7E7
:100A8000048003404FF0000343EC440043EC40007B
:100A90000521FFF76BBF0000064B10309B6843F841
:100AA0002010BFF35F8F00230349C1E88F3F82F31B
:100AB0001088704700ED00E0BAE800204FF0803069
:100AC000044B054A1946043393420860FAD162B6D2
:100AD000704700BF00E400E034E400E00122430975
:100AE00000F01F00824041B19B0003F1604303F519
:100AF0006143C3F880211A6070470249203341F8EE
:100B00002320704700E100E0064B420953F8222001
:100B1000012300F01F008340134214BF0120002076
:100B2000704700BF00E100E001224309034900F0E3
:100B30001F008240403341F82320704700E100E06D
:100B4000024B10309B6853F82000704700ED00E026
:100B500008B5FFF7F5FF034BC01A2F288CBF002004
:100B6000012008BD24DD002070B505460C46EFF3DA
:100B7000108672B60D4BD3E8CF1F01220029FAD19F
:100B8000C3E8412F0029F6D1BFF35F8FFFF7D8FFED
:100B9000074B984203D0A04201D000F049FF3246F3
:100BA00021462846BDE87040FFF776BFBAE800202E
:100BB000110100102DE9F74F804689469246EFF368
:100BC000108372B60193644BD3E8CF1F0122002932
:100BD000FAD1C3E8412F0029F6D1BFF35F8FDFF8C8
:100BE00094B19BF90030002B01DA00F021FF0C22B8
:100BF0009BF90060594D08F1100102FB06539B79E7
:100C000006EB46048BF80030554BA7009B6805EBBC
:100C1000840453F821104B1B2F2B22D9514B99429E
:100C200001D000F005FF0C234FF421417343EA1873
:100C3000E9524D4B02372F44043BDB1BC3F34A03FD
:100C40006FEAC3436FEAD34353804BF6015393805B
:100C5000FF2382F807A09371C2F8089044F00101C5
:100C60003AE021F0010C6346002093F807E0D645F6
:100C700039D83E4A002841D090F906E000F1040B33
:100C8000BEF1000F38DB6FF0070C8388ACEB070C6C
:100C900043F30A0302330BEB4303ACEB050C634451
:100CA000C3F34A036FEAC3436FEAD343043CA4EBA4
:100CB0000B04C4F34A046FEAC4446FEAD44484804A
:100CC0000C247443867128192A51838080F806E029
:100CD00080F807A0C0F808904046019A03B0BDE82C
:100CE000F04FFFF7D9BE93F906E01846BEF1000FAA
:100CF000BFDB02FB0E53B8E71D4BD7E74AF6AA212C
:100D000063465B1B5B415943090D0C235E434FF463
:100D10002143AB53144BA819BE1C2E44043B9B1B10
:100D2000C3F34A036FEAC3436FEAD34343806FF0D0
:100D30000703DB1B5B1B6344C3F34A036FEAC34334
:100D40006FEAD3438171838080F807A0C0F80890D0
:100D5000CCF8002082E700BFBAE8002024DD0020A4
:100D600000ED00E01101001054DD00200148804733
:100D700001BDFFFFEAE900202DE9F84F044689464E
:100D8000EFF3108572B6504BD3E8CF1F0122002934
:100D9000FAD1C3E8412F0029F6D1BFF35F8F4B4B47
:100DA00000F1100B9B6853F82B70494B9F426FD09A
:100DB0004F4500F08780DFF82C81A7EB08032F2B2D
:100DC00066D8FFF7A1FE002106462046FFF786FE03
:100DD000BFF35F8FEFF30583DBB29A461BB19B45F0
:100DE00001D000F025FE00214FF00C0C27F001028D
:100DF000936892F90600994517D100281BDABAF1D9
:100E0000000F50D100294CD0FF238B714BF60153BA
:100E10008B80304940460B7893714AF6AA23121A08
:100E2000524153431B0D0B702EE000282CDB114662
:100E30000CFB0082DCE70C23434308EB030CDCF8DB
:100E4000081091609CF80710D1719CF906100029D8
:100E5000917124DBBCF8041041F30A0103EB410358
:100E60006FF0070108334344891A0B44C3F34A0364
:100E70006FEAC3436FEAD34393800C23154A03FB05
:100E8000008311781070997131462046FFF726FED5
:100E90002A4639462046BDE8F84FFFF7FDBD0E4B08
:100EA000EAE70B4FB5E70D4B9B1A083BC3F30A313A
:100EB0006FEA01516FEA11519180094941EA5303E8
:100EC000D380E1E71F46E3E7BAE8002000ED00E049
:100ED00011010010EAE9002001BDFFFF5EDD0020E6
:100EE00000F8FFFF24DD0020F0B5EFF30585EDB23B
:100EF000EFF3108672B6204CD4E8CF2F0123002ADE
:100F0000FAD1C4E8423F002AF6D1BFF35F8F4AF618
:100F1000AA230146194A891A49414B431B0D59B26C
:100F2000174B40F00107D3F808C05CF825C0BC455A
:100F30000DD19B68134A43F82520134B1A7819707A
:100F400082710023C4E88F3F86F31088F0BD1546F8
:100F5000002395F906708F4208D10C2505FB032369
:100F6000FF229A714BF601529A80E6E70133042B77
:100F700005F10C05EDD1E0E7BAE8002024DD002002
:100F800000ED00E011010010EAE9002007B5074B71
:100F900001460093002205230548FFF703FB0028C4
:100FA000A8BFC0F1330003B000BD00BF87430010ED
:100FB00008EA0020014B0B4403607047B1E80020B1
:100FC00010B50446FFF72AFB01462046FFF7F2FF63
:100FD000FF232371BFF35F8F10BD10B50446FFF7E9
:100FE0001DFB01462046FFF7E5FFFF23A380BFF36B
:100FF0005F8F10BD38B50848084DA84200D338BDF2
:10100000044654F8083B1BB1FFF7E7FF2046F4E71E
:10101000FFF7D6FFFAE700BFBCDD0020C4DD0020EB
:1010200010B504460120FFF705FB034B0344236082
:10103000BFF35F8F10BD00BFB1E80020024B0B442F
:101040000360BFF35F8F7047B1E800200D4B10B510
:101050001A68EFF3108172B6D2E8CF4F0120002C4E
:10106000FAD1C2E8440F002CF6D1BFF35F8F1A68A3
:101070000023C2E88F3F81F3108840BF0020002189
:1010800010BD00BF78E800202DE9F04F2DED028B58
:1010900085B0EFF30582D2B2A34B103A9108A34D6D
:1010A00018BF1D46E81A434202F00302434102EB17
:1010B000830301929E4A9FED9A8B52F823400123AD
:1010C000019A93400293029A05F541535A60029B9C
:1010D000EB63B4F90830002B009352DB18265E4313
:1010E0006769284607EB0608D8E902A900F01AFB51
:1010F000504571EB090144DBB9F1000F6FDBD8E912
:10110000043B8C4A934255D15846DBF8103098473F
:10111000002864D0DBE9003B53EA0B025FD0BBF14F
:10112000000F53DABAEB030069EB0B0137F906C085
:10113000C8E90201BCF1000F23DB4FF0180BD4F813
:1011400014900BFB0C93D3E90223904271EB030341
:1011500017DBA6462EF808CF0BFB0CFA09EB0A08A2
:10116000D8E90223904271EB030305DB39F90AC089
:10117000C646BCF1000FEFDA009B27F806C0AEF8B8
:101180000030A388190446D5A37943B10023A37185
:10119000B4F9083004F108065A1C40F08180B4F913
:1011A0000820002A80F2978040BF05B0BDEC028B7A
:1011B000BDE8F08FB8F80220B4F9080092B25946A1
:1011C00042EA0040984703468B46A5E7284603932A
:1011D00000F0A8FA039BC0184BEB0101A6E7BB5B2C
:1011E00023812369EFF3108272B6D3E8CF0F012178
:1011F0000028FAD1C3E8401F0028F6D1BFF35F8F63
:1012000063880021BB53009B63802369C3E88F1F61
:1012100082F31088B5E72369EFF3108172B6D3E843
:10122000CF0F01220028FAD1C3E8402F0028F6D1C1
:10123000BFF35F8F4FF6FF72A3880020A2801BB21E
:101240002269C2E88F0F81F310884FF01809002B34
:101250009ADB09FB03F06269B4F908C0111804F1C4
:10126000080ED1E902B7BCF1000F0FDBBEF9001088
:1012700001EB410102EBC108D8F80C600096D8F8E8
:101280000860B345009E77EB060605DAAEF800303D
:10129000135E22F800C0DAE7C64632F931C0E2E751
:1012A000616903EB430001EBC002B2F802C031F9FF
:1012B00030701CF4004F0CD082ED028BB4F9082082
:1012C0009A4204D03780228921F8302023813B467E
:1012D00062E71646FBE71821636901FB0233D3E995
:1012E0000267B7F1FF3F08BFB6F1FF3F0FD0019B88
:1012F000A96A05EB83021369701A5B1A984205D339
:1013000001230198296A83400B4200D116612846C7
:1013100000F008FAB042B941BFF6D9AE44E700BFC9
:10132000FFFFFFFFFFFFFFFF00800B4000000B40AF
:1013300050E8002089100010F8B5C16004461E4630
:1013400017460D46FFF76AF91A4B277003442361CD
:101350004FF050431B68002263704FF6FF732381E8
:10136000A380731E638018236681B24218D1124E87
:101370001249AB1B5E425E41114B07EB860643F8F8
:101380002640012404FA07F730462F62FFF7ECFBF2
:1013900005F5015521463046FFF7A0FB2F60F8BD4B
:1013A00003FB02F1606902F1FF3C20F801C0013249
:1013B000DBE700BFB1E8002000800B40891000107F
:1013C00050E8002010B5094C23694BB903210848A7
:1013D00000F096F91023032220460549FFF7ACFFE1
:1013E000BDE810400A210348FFF7E4BD6CDD002092
:1013F00000000B4078E80020074A536A994206D85B
:10140000926A824205D2C81A18BF01207047002094
:1014100070470120704700BF00000B400048704734
:101420006CDD00202DE9F0430146994690460369A2
:10143000EFF3108072B6D3E8CF4F0122002CFAD11F
:10144000C3E8442F002CF6D1BFF35F8FB1F902300F
:101450004C6903EB4305002BA8BF34F835204FF04F
:101460000006A8BF4A8004EBC5070A69C2E88F6F6F
:1014700080F31088B34233DB7888079A0130C0F3D9
:101480000E00012838BF01203A61089A78807A61FD
:10149000C7E9028940EA03400A69EFF3108772B690
:1014A000D2E8CFEF5FF0010CBEF1000FF8D1C2E837
:1014B0004ECFBEF1000FF3D1BFF35F8F8A8824F8BF
:1014C00035208B800B69C3E88F6F87F3108801226A
:1014D0000B789A40CB6803F501535A60BDE8F0835E
:1014E0004FF0FF30FAE72DE9F0479DF82840074616
:1014F000DDE9088916461D4644B132462B4638467A
:10150000CDE90889BDE8F047FFF78CBF00F01EF970
:10151000864265EB0101A142EFDA2046BDE8F08783
:101520000346408970B5B0EB214F4FEA214201DC00
:10153000002070BD1824586904FB02001A69EFF3FB
:10154000108472B6D2E8CF6F0125002EFAD1C2E81E
:10155000465F002EF6D1BFF35F8F428889B292B208
:101560008A4216D16FEA42426FEA5242428001201B
:10157000987100221969C1E88F2F84F31088002820
:10158000D6D001221978DB688A4003F501535A60EE
:10159000CFE70020EDE74078704700002DE9FF41DC
:1015A000841F61F10006A04271EB060338BF0024DE
:1015B000054638BF26460F4600F0C8F8201A66EBED
:1015C0000101012871F1000106DA2846394604B00C
:1015D000BDE8F04100F0C0B80023CDE90133154B60
:1015E0002246009314483346FFF77DFF0130ECD0CC
:1015F000DFF8488020463146FFF7FEFE0028E4D1A0
:10160000D8F80030EFF3108272B6D3E8CFCF0121C3
:10161000BCF1000FF9D1C3E84C1FBCF1000FF4D1AD
:10162000BFF35F8FD8F80030C3E88F0F82F31088C4
:1016300020BFDFE74D1000106CDD002078E80020AF
:1016400038B504460D4600F081F84FF0FF326FF0D8
:101650000043201845EB0101824273EB010438BFBF
:101660001946BDE8384038BF1046FFF797BF4FF422
:101670007A71A0FB0101FFF7E3BF00002DE9F04301
:1016800004460D4685B0EFF30587FFB227B105B0DC
:10169000BDE8F043FFF7B0BE174ED6F80C9096F8B1
:1016A0000080484600F03EF808F1040859F8283058
:1016B000221AA3EB000365EB01019A4271F10001CC
:1016C00003DB20BF20462946E1E70C4B3046009360
:1016D00022462B46CDE90177FFF705FF061E294676
:1016E0002046D4DDFFF788FE00B920BF314602480E
:1016F000FFF716FFE6E700BF6CDD00204D1000107D
:1017000010B4054B054C064AA04214BF1846581C9D
:1017100010BCFEF72ABF00BFE8E9002000800B40A4
:10172000A24300100346416A0A46986A596A8A42EF
:10173000FAD17047416A9942FCD3994202D1816A39
:10174000914200D37047416AF7E700000148FFF774
:10175000E9BF00BF00000B4002460B460148FFF7FF
:10176000E9BF00BF00000B40F0B50C24444304F176
:10177000804404F580346568059E071FB542FFB2BA
:1017800038BF6660012F04F5405528D8012926D1BD
:101790004FF0030CC5F800C0A568ED07FCD525681F
:1017A00004F5805C85EA421505F0E005012FCCF8D0
:1017B00000500AD822684A4002F00302CCF8002008
:1017C00001228A40A1681142FCD04FF4006104F567
:1017D000005211600B4A666042F82030F0BD4FF4B1
:1017E000006CC5F800C0074D55F820C0BCF1000FD3
:1017F000D5D06D69B5FBFCF5013505EB4505033D1D
:10180000FDD2CCE7ECE3002013B54FF48034009414
:10181000FFF7AAFF02B010BD014B53F8200070473C
:10182000ECE3002070B51D4CB4FBF1F4B2FBF4F214
:10183000049C240344EA03430468002C0EDA046881
:1018400004F03F048C4209D18468C4F30B04944231
:1018500004D1C46804F4EE249C421DD0104D012430
:10186000A84214BF0E250F25AC400E4D0E4E2C6025
:1018700005F580552C60B56834EA0505FBD101609B
:101880002121826000F54052043211600168002974
:10189000FCDAC3600823136070BD00BF001BB700F3
:1018A000008005400020024000000240024B1A6800
:1018B000024B5A60704700BF28E8002000800D40AE
:1018C0004FF08043114A10B5114C136003F5D0332B
:1018D0009C604FF0E06403F5402329B11C6028B9F7
:1018E0004FF000421A6010BD1460F8E74FF47A73AD
:1018F0006FF07F425843074B904294BF18601A60C4
:10190000FFF7D4FF4FF08042034BEBE700B00D40F0
:10191000F3FFFF0128E8002000A00D4030B403468B
:101920004FF080440A48046004F558246BB1094D17
:1019300043F0010308485D40E06125626162A362F3
:10194000002130BC1046FFF7BBBFE361F8E700BFE2
:1019500000B00D402D3FF84FD3C007B00C235843C3
:10196000012300F1804000F584104160036070475E
:10197000002370B5DB8A05460E46002242E800F2DD
:10198000520254BF1021042144F2522098470446C9
:1019900033462A46A446BDE870400A214FF48170C0
:1019A00060470023DB8A002242E800F2520254BF63
:1019B00010210421184708B50B46011E02DB22B98D
:1019C00043F020031846FFF7D3FF43F03003F9E755
:1019D000034AD2F82838002BFBD0BFF35F8F704743
:1019E00000000E400021044B044ABFF35F8F43F810
:1019F000041B9342F9D170470C080E402C080E408E
:101A0000FFF7F0BF4FF42A62054B06491A604FF406
:101A10008D72DA60044A11605A68002AFCDA704755
:101A20000080044000B0FA0000A0044070470000AD
:101A300008B50148FEF75CFDC443001038B5044CFE
:101A4000044DAC4200D338BD54F8043B9847F8E746
:101A5000D042001010430010054B064A06491A6098
:101A6000064B074A13608A6833EA0202FBD17047CB
:101A7000002002407F3BEFEF00000240F6FFF3033F
:101A800000300240044BDB6CB3F5004F02BF4FF453
:101A90008022024BDA647047000011500020115080
:101AA0004FF0E022044BD2F8881D0B43C2F8883D6A
:101AB00010EE3004704700BF030330006FF0604247
:101AC000044B1A60044A9368DB4333F06043FAD155
:101AD000704700BF003002400000024010B545F2E0
:101AE0005320FFF75EFFBDE810400346042018476F
:101AF00010B545F25320FFF754FFBDE810400346F0
:101B000001201847FEF7AEBD10B50B490B4C0C4831
:101B1000641AA410442C224628BF4422920002F0EA
:101B20000DFB074B074A432C02D9074A936010BDAF
:101B300043F824200134F6E70000001010010010E3
:101B4000000000201101001000ED00E0002373B53B
:101B5000294DC5F88430FFF755FF0122274BDA6382
:101B60006A6C012AFCD103221A63AC6B012CFCD1F4
:101B70000226052521460523214A22480096FFF723
:101B800051FE2B462146204A20480095FFF74AFE89
:101B90000022314604201E4BFFF736FE2146284620
:101BA00000221C4BFFF730FE0022082011461A4B82
:101BB000FFF72AFE002209201146174BFFF724FEEB
:101BC000002206201146134BFFF71EFE00220720BD
:101BD0001146104BFFF718FE0420FFF71DFE0F4DB6
:101BE0000024B0FBF5F5E0B229460134FFF7B6FE5C
:101BF000062CF8D102B070BD000001400030014059
:101C0000002F685900000540008C86470080054081
:101C1000001BB70080D1F008006CDC0240420F00CE
:101C200008B100F001B970471FB5084A03461468AF
:101C300044B100914FF0FF32054803A9A0470120AD
:101C400004B010BD00F0FEF82046F9E724E80020BB
:101C5000211C001000BEFDE708B5FFF7FBFF0000E8
:101C600038B5FFF7EBFE044C044DAC4200D338BD51
:101C700054F8043B9847F8E710430010184300104D
:101C8000034608461B68114618470000437D2DE9AE
:101C9000F04104460D461646A3B101F1FF3800217C
:101CA00008468E4214DC86422EDD311A2368284411
:101CB0009847354415F8013CA3F10D0253425341B6
:101CC000237523E0036811462846BDE8F041184714
:101CD000C1B198F80030A3F10D077B427B4118F8A1
:101CE000012F4F1C0A2A0BD153B9814203DD091A77
:101CF00023682844984706480221236898473846B5
:101D00003946CEE7237DEAE7002ED2DCBDE8F0813C
:101D10001A45001010B5FFF719FD0A4A82184FF056
:101D2000FF3041F100036FF00041904271EB03047A
:101D300038BF0246BDE8104038BF0B46024802F0EB
:101D4000BBBA00BF40420F00BCDD0020014802F0DA
:101D5000A7BA00BFBCDD00202DE9F74F0C461D4699
:101D600007469346FFF7D6FF631C804603D13846EB
:101D700002F05AFA04464FF00A0A154B154EDFF8E6
:101D80005C90002D18BF1E46134B1D6845B9B8F175
:101D9000000F01D0FFF7DAFF204603B0BDE8F08F57
:101DA0002B6893B1D9F800300BB1AB420DD122466C
:101DB00039462846B047BBF1000F06D0012228461D
:101DC0000DF107018DF807A0B0472D69DEE700BFD0
:101DD0008D1C0010811C001014E400201CE4002065
:101DE000094B1A6812B901B1186070471A6882422B
:101DF00005D10029F9D102691A600161704702F129
:101E000010031269EEE700BF14E40020044B10B584
:101E10001C6804B910BD636803B198472469F8E7EA
:101E200014E4002000F060B9012313B504468DF8D6
:101E30000700002219460DF10700FFF78DFF20462D
:101E400002B010BD38B5054602F0EEF90123044694
:101E500001461A462846FFF77FFFFFF7D7FF2046C7
:101E600038BD70470022014B1A707047EBE9002023
:101E70004B79FF2B0BD1887948B9CB79012B07D14E
:101E8000082A05D98A78034B09201A707047002068
:101E9000704700BFEBE9002001207047012908B519
:101EA0001BD1104B91881B78994218D15378012B84
:101EB0000CD15188CB0548BF480AC1F3402258BF16
:101EC0004FF0FF3001F07F01FFF775FD022B06D1C7
:101ED000002164220846FFF721FD012008BD0020F3
:101EE000FCE700BFEBE9002000487047E245001026
:101EF0000129114609D15378012B08D19388072B6A
:101F000005D1A623034A01F01DB901207047002026
:101F1000704700BF3C450010012303700048704724
:101F20001C45001008B50B68B3F5966F05D100226B
:101F30004FF0FF301146FFF73EFD08BD024B186021
:101F4000024B1960704700BFE0E30020E4E300208B
:101F5000164B70B51A681AB3EFF3108172B6D2E857
:101F6000CF4F0120002CFAD1C2E8440F002CF6D14B
:101F7000BFF35F8F00220E48596002701B68C3E8F0
:101F80008F2F81F3108800240A4E00253078FEF749
:101F9000BBFD40B13078FEF7C7FD2046294670BD35
:101FA0004FF47A74F0E700240025F6E748E80020B3
:101FB000EDE90020ECE90020014B1878FEF7B4BDF4
:101FC000ECE9002010B5FFF7C1FB114A82184FF071
:101FD000FF3041F100036FF00041904271EB0304C8
:101FE0003CBF02460B460B4802F066F970B14FF059
:101FF000FF30002100F02AFD002001F0ABF900289D
:10200000F5D1BDE81040034802F04AB910BD00BF49
:1020100040420F007CE8002030B5002185B02C48FC
:1020200002F052F9B8B100214FF0FF3000F00EFD80
:10203000002001F06FF90446254802F031F9002C28
:1020400043D0244B1B68002B3FD0234A106805B0B7
:10205000BDE830401847214A1368002B35D0EFF314
:10206000108172B6D3E8CF5F0124002DFAD1C3E806
:10207000454F002DF6D1BFF35F8F0125184C5160FD
:1020800023781268DBB22570C2E88F0F81F31088C5
:10209000DBB9FFF7C3F90446FFF758FB10F57A7276
:1020A0004FF0FF3041F100036FF00041904271EBBF
:1020B00003053CBF02460B4601200021CDE901107B
:1020C000084920460091FFF70EFA05B030BD00BF69
:1020D0007CE80020E0E30020E4E3002048E8002062
:1020E000EDE90020511F00104FF0504330B585B08E
:1020F0001C68FFF793F9FFF74EFAA04202D00020C8
:1021000005B030BD0021274B08461B7801F01EFCAE
:10211000254803680BB9FEF753FF0120FEF736FF91
:10212000224C23492070C0B2FEF71EFD2078012109
:10213000FEF7D4FC0E20FEF70BFD88B10120FEF760
:1021400079FA01461B48FEF779FF00220E201A4952
:10215000FEF730FD19480121FFF742FE0120CFE7CD
:10216000144BC3E90000FFF759F90446FFF7EEFAF4
:1021700010F57A724FF0FF3041F100036FF000412B
:10218000904271EB03053CBF02460B460120002143
:10219000CDE901100A4920460091FFF7A4F9002873
:1021A000ADDBD7E7F84600107CE80020ECE9002022
:1021B0001920001048E80020B91F001084DD00201D
:1021C000511F0010002001F08FB8000070B50446C8
:1021D0000D46FFF7F7FF18B96FF00204204670BDF7
:1021E000002001F097F80028F6D0FFF7AFFA164A62
:1021F00082184FF0FF3041F100036FF00041904230
:1022000071EB03063CBF02460B46104802F054F83F
:102210000028E1D0FFF7D6FF80B1002001F07AF866
:1022200060B121462A46002001F07EF8044608B934
:102230006FF00204054802F033F8CFE701464FF093
:10224000FF3000F003FCF3E740420F007CE8002081
:102250002DE9F84380460F46FFF778FA304A821896
:102260004FF0FF3041F100036FF00041904271EBFD
:1022700003043CBF02460B462A4802F01DF8002822
:102280004BD0FFF79FFF002842D100200021264BB2
:10229000C3E9000137E0002001F0B8F87C1B84425C
:1022A000A8BF0446ACB1224608EB0501002001F0AE
:1022B00091F8002105444FF0FF3000F0C7FB0020EB
:1022C00001F048F8FFF742FAC9E90001AF42E2DC49
:1022D00019E021464FF0FF3000F0B8FB204601F036
:1022E00039F8FFF76FFF70B1204601F08FF8002832
:1022F000ECD1FFF72BFAD9E900329B1942F1000229
:1023000083428A41E2D20748BDE8F84301F0C8BFE2
:102310000025DFF81490054ED8E7BDE8F88300BF2C
:1023200040420F007CE8002048DF002020A1070089
:10233000004870477C46001000487047284600104F
:1023400010B504461248037813B9112100F03EF885
:1023500064B940F209420F4B5A8001230133DBB2CA
:102360000C485B0043F44073038010BD052C0DD86E
:10237000094B084953F824000023C25C002AEDD021
:102380000133132B21F8022FF7D1E7E70020ECE708
:10239000F7E9002086E800201046001000B545F25D
:1023A00047308BB0FFF7FDFA01220346092101A84F
:1023B00098470823044A05A911F8010D013B02F8CA
:1023C000010BF9D10BB000BDEFE90020002230B5C0
:1023D0000C4D0139914201D9102A02D100238354B6
:1023E00030BDD4435308EB5C04F00104A400234146
:1023F00003F00F03092BD4BF30333733835401323A
:10240000E8E700BFEFE90020F0B500F07F041A4BC9
:10241000660006EBD01503EB4515C709A87087F0D9
:102420000100687000202983E870EA761349E20011
:1024300003EB841077B10A44826200213E4403EB2F
:102440004616B26811604CB90D4A03EB47135C6045
:10245000DA60F0BD04320A448260EEE7621E094988
:10246000D20003EB841317B10A445A62F1E7043235
:102470000A445A60EDE700BF20E4002080001050BD
:102480000001105008001050038BC27E08493F33F2
:102490009B09022A0A6814BF9B01DB01C2601A442F
:1024A000044B0A609A4201D9FFF7C2BA704700BFD5
:1024B0002CE80020FF0F105010B500F0C3F80C23DB
:1024C000124CFF22A3670E201149FEF773FB402236
:1024D0000021104801F0EEFD002240211046FFF7D8
:1024E00093FF002240218020FFF78EFF01F0CCFEF9
:1024F00001204FF000534FF480322064E364064B18
:10250000C4F89030054BDA6410BD00BF00001150D4
:102510001D03002020E4002010D0010000201150F5
:1025200001210E20FEF7DABA00220248114600F01F
:10253000A9B800BF40E40020044B197021B14FF44A
:102540000032034BC3F89020704700BFB0E8002072
:10255000002011500B785B0606D14B78052B01BF8C
:102560004B88024ADBB21360704700BF0000115075
:10257000CA7838B502F00302012A20D08D78898804
:1025800005F07F042846C1F30A01FFF73DFFA4B11F
:10259000640004EBD5100B4C04EB40142046FFF70D
:1025A00073FFE368E27E83F0A04383F4801343EA81
:1025B0008263626843F000431360012038BD00204D
:1025C000FCE700BF20E4002001F05EBE084608B52D
:1025D000114600F07F02C00900EB42001A46034B8F
:1025E00003EB401000F04EF8012008BD20E400206D
:1025F00011F07F0305D100290CBF02200120064AFB
:102600009066C90901EB4300044B4FF400620021BE
:1026100003EB401001F04CBE0020115020E40020DC
:1026200011F07F030BD0002205485B0003EBD113B0
:1026300000EB43106FF40061C27001F039BE7047C7
:1026400020E4002008B54FF080530A4A136002F5D9
:1026500080521360084B9968C94311F08051FAD138
:102660004FF48052054801F025FD0922044B5A67BA
:1026700008BD00BF002002400000024000001050D2
:1026800000001150002310B5C3820123828283769B
:102690000161044601F014FE20B14FF40032074BF3
:1026A000C3F89020204601F0FFFD10B101232377ED
:1026B00010BD2046BDE8104001F0EEBD00201150D5
:1026C0002DE9F04106460024184D194FDFF87080BF
:1026D0002A78E3B2511C994210DA5422002115489D
:1026E00001F0E8FC1022FF21134801F0E3FCBDE8F3
:1026F000F0412022FF21114801F0DCBC9A420DD9A3
:10270000D8F8002012EB43130BD14FF0E023D3F89D
:10271000F03DDB0700D500BEBDE8F0819B1A07EB5A
:1027200043133046DB6898470134D1E7AEE8002018
:1027300090460010D3E80020D7E80020E7E800200A
:1027400050DF002070B50C4605461646486900F07B
:102750002BFD3246284663690121BDE870401847C9
:1027600070477047002070470020704770477047DF
:1027700070477047024B5878003818BF01207047E7
:10278000D3E80020024B1878C0F38000704700BFE8
:10279000D3E800202DE9F0472C4F04463B780E4645
:1027A000FF2B3FD149B94FF0E023D3F8F03DDB07D1
:1027B00000D500BE0020BDE8F08700215422244847
:1027C00001F078FC0022234D234B28461A70FEF7B7
:1027D000F7FB224B22481D60224DFEF721FC2846C4
:1027E00001F02FFC204B1D60204B23B12048FFF748
:1027F00093FB204B18600025DFF87480DFF8789099
:10280000DFF870A098F80020EBB2511C99420BDA67
:10281000314620463C70FFF74FFE0028C3D02046CB
:10282000FFF77EFE0120C6E79A420AD9DAF80020B7
:1028300012EB4313B7D05B68002BB4D00135984737
:10284000E0E79B1A09EB4313F5E700BFB8DD002072
:10285000D3E80020F0E00020E7E90020F8E00020C5
:10286000B0DD00209CDD0020FCE00020191F0010DE
:10287000AEE8002050DF00209046001038B58B787D
:102880000C4603F0700343B14FF0E023D3F8F03D62
:10289000DB0700D500BE002038BD074B20461D7861
:1028A000064B997801F0C2F80028EDD02146284661
:1028B000BDE83840FFF75CBEB8DD0020D3E800205B
:1028C0002DE9F0478146DDE908670C4690469A46B7
:1028D0000025A84501DC01200AE06378052B09D01A
:1028E0004FF0E023D3F8F03DDB0700D500BE002019
:1028F000BDE8F087E17801F003015145F0D12146B0
:102900004846FFF7BBFF0028EAD0A1780135CB0984
:1029100014BF3970317023781C44DAE7CB0901F019
:102920007F02343303EB42030248034A1844116820
:1029300001F03CB8D3E80020F8E00020CB0901F01A
:102940007F02343303EB42030248034A1844116800
:1029500001F051B8D3E80020F8E0002010B5144C85
:1029600001F07F0004EB400404EBD11494F8340030
:102970003034C00708D54FF0E023D3F8F03DDB0733
:1029800000D500BE002010BD207940F0010020716C
:1029900008480078FFF71AFE0028F4D1237960F385
:1029A00000032371237960F382032371E3E700BFFF
:1029B000D3E80020B8DD002010B50C460B4B18788A
:1029C000FFF716FE0A4B04F07F0203EB420303EB12
:1029D000D41191F8343043F0020381F8343091F887
:1029E000343043F0010381F8343010BDB8DD0020ED
:1029F000D3E8002010B50C460B4B1878FFF710FEFB
:102A00000A4B04F07F0203EB420303EBD41191F86D
:102A1000343023F0020381F8343091F8343023F05D
:102A2000010381F8343010BDB8DD0020D3E8002068
:102A3000054B01F07F0203EB420303EBD11393F844
:102A40003400C0F340007047D3E800202DE9F04F78
:102A5000A34B87B01B78FF2B4DD0DFF89092A14B92
:102A60001C686369EFF3108272B6D3E8CF0F0121BF
:102A70000028FAD1C3E8401F0028F6D1BFF35F8FCA
:102A8000A261204603A901F0E5F900236269C2E8CA
:102A90008F3FA36983F3108868B39DF80D30013B25
:102AA000072B00F2F682DFE813F008001300EB02B8
:102AB000D002DC021C009702E4029DF80C00FFF734
:102AC000FFFD00F069FB9DF8103089F80230C6E781
:102AD0009DF80C00FFF7F4FD00F05EFBFFF747FEEA
:102AE000BDE7814B1A784AB94FF0E023D3F8F03DA7
:102AF000DC0700D500BE07B0BDE8F08F1A78013AB8
:102B00001A701B7803F0FF00002BA8D1774C9DF8BA
:102B10000C50237843F00103237094F8343060F3B1
:102B2000000384F8343094F8343060F3820384F87E
:102B3000343094F8353060F3000384F8353094F87D
:102B4000353060F3820384F8353000F02DFB9DF8BA
:102B5000102002F06003602B07D14FF0E023D3F880
:102B6000F03DDD072AD500BE28E0402B0BD16048A0
:102B700000F01AFB0121284604AAFFF7B9F9002842
:102B80007FF46DAF1AE002F01F02012A00F091817C
:102B9000022A00F0C581002ADFD1202B25D19DF823
:102BA00014300F2B0AD8534A23441B7912789342CE
:102BB0000FD2514A116811EB431111D19DF80C004D
:102BC0000021FFF715FD80219DF80C00FFF710FD97
:102BD00045E7511C9942F1DB48499B1A01EB43112F
:102BE00004AA2846FFF7AEFDC9E7002BB5D19DF832
:102BF0001130092BB1D801A252F823F0912E001008
:102C00007F2E00105B2B00106B2E00105B2B001032
:102C1000252C0010C32D00105B2B00103F2C001042
:102C2000492C001004A800F0C5FA28469DF812109F
:102C3000FFF77AFC237843F0020323700FE76378F1
:102C40008DF80A3001232DE19DF8126063789E42D1
:102C500041D063785BB100212846FFF76DFC284620
:102C6000FFF7B2FCA7782846FFF72AFDA770667029
:102C7000002E00F0A380701EC0B2FFF75DFB10B104
:102C80004378022B10D04FF0E023D3F8F03DDB0760
:102C900000F192804FF0E023D3F8F03DDF0700D53C
:102CA00000BE0023637089E7C37900F10906C3F30E
:102CB0008012C3F340131B0143EA4213227822F02F
:102CC0003002134323704388C3180093009BB34220
:102CD00016D8FFF74BFD284604A900F021FABEE6FE
:102CE000B8DD0020FCE00020E7E90020D3E8002068
:102CF000F11E0010AEE8002050DF002090460010CA
:102D000073780B2B02BF337896F803A0F61873780C
:102D100018BF4FF0010A042BB5D14FF0000B009BF8
:102D20009B1B9BB2A74A5FFA8BF817787A1C9045D9
:102D3000A9DC47452BD9A44A176817EB4817A2D03E
:102D40001A46019331463B692846984708280246AF
:102D5000019B2ED983422CD3BAF1010F05D13969D9
:102D60009A4B994208BF4FF0020A0021CBB29A4514
:102D700013D8434631469648019200F086FE914BA7
:102D8000019A1B781644013398459FDD7BE7914AF1
:102D9000A8EB070702EB4717D2E7B078034454FAD1
:102DA00083F31879FF287FF46EAF013183F8048034
:102DB000DCE70BF1010BB5E700BE6BE7FFF7D7FCD3
:102DC00089E7BDF81200030A5A1EC0B20E2A3FF668
:102DD000F5AE01A151F822F0152E0010372E00108B
:102DE000512E0010BD2B0010BD2B0010652E0010C1
:102DF000372E0010BD2B0010BD2B0010BD2B001076
:102E0000BD2B0010BD2B0010BD2B0010BD2B0010E2
:102E10002D2E0010FFF78CFA024600283FF49DAEDD
:102E20001223284604A900F08DF9A8E6FFF75CF804
:102E3000024640B9C2E6022B07D1FFF77DFA0246EF
:102E400000283FF48AAE5388EBE7FFF78DFCEFE7ED
:102E5000BDF81410FFF774FA024600283FF4AEAE36
:102E60000378DEE7FFF77EFCF6E7BDF81230012BB2
:102E70007FF4A4AE237843F0080323702BE7BDF85A
:102E80001230012B7FF49AAE237823F00803F4E785
:102E90002378C3F340129B0803F002031343ADF8F9
:102EA0000A30022328460DF10A0204A900F04AF96B
:102EB000D5E59DF814300F2B3FF680AE414A2344F0
:102EC0001B791278934222D23F4A116811EB4311C9
:102ED0003FF474AE284604AAFFF734FC00287FF4C0
:102EE000BEAD9DF8103013F060047FF467AE9DF81E
:102EF00011300A3B012B3FF661AE00F055F99DF809
:102F000011300A2B7FF4E7AE8DF80A409AE6511C87
:102F10009942FFF653AE2F499B1A01EB4311D9E7B3
:102F20009DF8141011F0700F7FF417AE01F07F02BE
:102F3000244804EB420202EBD112127D0078824257
:102F400013D22148066806EB4216DBB99DF8113012
:102F500003F0FD02012A19D0002B7FF4FEAD2846B4
:102F6000FFF766FDADF80A009BE7461C9642C0F2EB
:102F70009980184E121A06EB4216002BE6D0314605
:102F800004AA2EE6002E3FF419AEF8E7BDF8122091
:102F900022B9012B284612D1FFF72CFD002E3FF459
:102FA0005EAD314604AA2846FFF7CCFB002000F0B6
:102FB000FBF894F83530DE073FF551AD8BE6FFF7AF
:102FC000FBFCEBE7AEE8002050DF0020F1340010FE
:102FD000E7E80020904600109DF8101001F07F04F3
:102FE00009EB440202EBD11292F8343023F00103D2
:102FF00082F8343092F8343023F0040382F834300D
:103000003CB9059B9DF811209DF80C0000F0DEF8FE
:1030100025E5274B127D1B789A420DD2254B1B6864
:1030200013EB42133FF460AD9C699DF81120059BA2
:103030009DF80C00A04712E5581C9042FFF654ADD5
:10304000D21A1D4B03EB4213EEE799F80030D80774
:103050007FF505AD99F80000C0F3C000FFF788FBCD
:10306000FDE499F80030D9077FF5F9ACFFF781FB53
:10307000F5E4049B002B3FF4F2AC05989847EEE48E
:1030800099F80330DA077FF5EAAC0498FFF769FB9B
:10309000E5E44FF0E023D3F8F03DDB077FF5DFAC4C
:1030A00000BEDCE4002B7FF489AD1E464EE700BF76
:1030B000AEE8002050DF002090460010124B70B5A3
:1030C0009989DA8905468C1AA4B293F90000402C3C
:1030D00028BF402400280EDA914212D09968224677
:1030E0000A4801F02BF88021084A23462846BDE80B
:1030F0007040FFF733BC91424FF00001F4D10A4613
:10310000F3E780210022F0E7DCE000209CE00020D3
:10311000C943002301F080011A46FFF71FBC0000DD
:1031200030B4074C0546234608680A46496803C37D
:1031300000232846C4E9023330BC1178FFF7E8BF0A
:10314000DCE00020F8B5134D0C462E460746086813
:103150004968AA6003C60021E981E1888B4228BF43
:103160000B46AB8189B14BB142B94FF0E023D3F8A4
:10317000F03DDB0700D500BE002005E03846FFF734
:103180009DFF0028F1D00120F8BD38462178FFF7D7
:10319000BFFFF6E7DCE0002014220021014800F028
:1031A00089BF00BFDCE00020014B1861704700BF01
:1031B000DCE000200146044A00681346496803C366
:1031C0000023C2E902337047DCE0002070B5294CCF
:1031D0001E4623780546C3F3C013B3EBD11F13D0AB
:1031E0003EB14FF0E023D3F8F03DDB073FD40020A1
:1031F00070BD2146FFF7AEF923691BB122460321BA
:10320000284698470120F3E794F90030002B06DBAD
:10321000A0680028EBD03246174900F08FFFA36862
:10322000E18933443144A360E38889B28B42E18170
:1032300001D03F2E17D8236933B928462178FFF7EC
:1032400067FF0028DED1CCE702212846094A9847CB
:1032500001460028F1D12846FFF7CAF98021284607
:10326000FFF7C6F9CEE72846FFF728FFE9E700BEDB
:10327000BDE700BFDCE000209CE000202DE9F0412C
:103280000746FFF777FA48B3FFF77CFA054628BBF5
:10329000C8247C43124B1E19F278FAB110341C4436
:1032A000204600F0C5FD3F2818D92846F178FFF7E1
:1032B00035FB98B1204600F0BBFD3F28F17808D9D6
:1032C000084A284602EBC7124023BDE8F041FFF749
:1032D00045BB2846BDE8F041FFF730BBBDE8F081B3
:1032E000D4DF002054DF002010B50446FFF742FA77
:1032F00008B9002010BDFFF745FA0028F9D1C8230E
:10330000034803FB0400007900F00100F2E700BF6E
:10331000D4DF0020C82208B5024B02FB003000F0C9
:103320005DFD08BDE4DF002038B54FF6FF739A421B
:1033300028BF1A460446C820054B92B200FB043051
:1033400000F0A7FD05462046FFF798FF284638BD48
:10335000E4DF00202DE9F0418046FFF70BFA60B36F
:10336000FFF710FA074640BBC82606FB08F6174DC4
:1033700006F124042C44204600F030FDE8B1354429
:103380003846A978FFF7CAFAB8B1114E204606EBC5
:10339000C811402200F07DFDA978044690B1034693
:1033A00006EBC8123846FFF7D9FA48B94FF0E023C8
:1033B000D3F8F03DDB0700D500BE0020BDE8F0816A
:1033C0002046FBE7FFF7BAFAF7E700BFD4DF00209B
:1033D00094DF0020C82370B50B4C054603FB004466
:1033E0004FF6FF739A4228BF1A46204692B200F069
:1033F000A4FD0646204600F0F1FC3F2802D92846ED
:10340000FFF7A8FF304670BDF8DF0020C82208B5DE
:10341000024B02FB003000F00BFD08BDF8DF00207E
:10342000F7B50024C8220021174800F043FE174BCF
:10343000154F1C70FF237B714FF4E133BB600823F1
:1034400007F13801BB7340220123009407F11000FB
:1034500000F097FC01234022009307F1780107F167
:10346000B80607F1240000F08CFC07F1C0053046D7
:10347000FDF7A6FD2846FDF7A3FDC7E90746C7E906
:103480000C5403B0F0BD00BFD4DF0020AFE8002033
:10349000074B1A6A196B12B10022DA61012211B1CD
:1034A0000021C3E90C110AB100221A620120704701
:1034B000D4DF0020002310B50A480B4C03600371D1
:1034C0002378DA0702D4103000F0BBFD23789B0785
:1034D00002D4064800F0B5FDBDE8104001210348C4
:1034E00000F0CABDD4DF0020AFE80020F8DF0020E4
:1034F000F7B54B790746022B3BD18B79022B38D19C
:10350000214EB37873BB09258B7833700B78CC18B8
:103510006378242B1FD1954218D96378042B11D1DD
:1035200063790A2B0ED1194B26780193013300934E
:10353000022338461A46A119FFF7C2F990B10E3599
:103540002E44B5B20020FFF799FE13E023781D4406
:10355000ADB21C44DCE7052BDFD121463846FFF72E
:103560008DF950B94FF0E023D3F8F03DDB0700D5DB
:1035700000BE0025284603B0F0BDA3787370237801
:103580001D44ADB21C44C8E7D4DF0020D6DF0020C4
:103590000B461146127870B502F06002202A47D11E
:1035A000244E8A883478944242D14A78203A032AB9
:1035B0003ED8DFE802F002141731012B05D10723B2
:1035C0001D4AFFF7BFFD012070BD032BFBD11B4B34
:1035D000002BF8D000201849FEF7A4FCF3E7012BDC
:1035E000F1D1ECE7012B02D1FFF79AFDEBE7032BBA
:1035F000E9D14C88124804F0010585F001013471CD
:1036000000F03AFD0F4B002BDDD029460020C4F31B
:103610004002AFF30080D6E7012BE5D0032BD2D1D7
:10362000094B002BCFD000204988AFF30080CAE7B8
:103630000020C9E7D4DF0020DCDF0020251F0010B8
:10364000F8DF002000000000000000002DE9F84332
:10365000324C1D46E37880468B420F460CD0A3784F
:103660008B4239D04FF0E023D3F8F03DDB0700D593
:1036700000BE0020BDE8F8832949AAB204F1100079
:1036800000F05BFC274B4BB9274BEBB90020FFF751
:10369000F5FDA378BB421FD00120EBE76379FF2B38
:1036A000F2D01F4E06EB0509B145EDD016F8013BEF
:1036B00062799A42F8D11D4800F0A1FB0028F3D1AD
:1036C0006179AFF30080EFE7184800F098FB00281D
:1036D000DCD1AFF30080D9E7154B13B10020AFF375
:1036E00000800020FFF736FE0028D5D1114800F0F9
:1036F00075FB0028D0D1002DCED015F03F05CBD1E1
:103700004046A178FFF70AF90028C5D02B462A4683
:103710004046A178FFF722F9BEE700BFD4DF0020C2
:1037200054DF00200000000000000000E4DF002063
:1037300000000000F8DF002010B9024900F012BAC2
:103740000020704790E10020F0B5144F85B04FF491
:1037500013720021114800F0ADFC07F5A673402656
:103760004FF48075009300230D4C1A4619460294BD
:103770000396019507F5947000F099F907F1280375
:1037800000930023344401221946CDE901540396E5
:10379000381D00F08CF905B0F0BD00BF8CE10020B1
:1037A0000CE1002008B5044800F0A6F9034800F039
:1037B000A3F9012008BD00BFB4E2002090E1002081
:1037C00038B50025064C04F59870257000F039FCDA
:1037D00004F10C0000F035FC84F82951657138BD06
:1037E0008CE100202DE9F8434B798046FF2B0F46F2
:1037F0002AD1314D95F829616B791E4316F0FF06E9
:1038000022D10C788B780C4404EB02092B703A79A6
:10381000F3B29A4202D806E023781C446378052B61
:1038200004D04C45F8D3E01B80B20EE04C45FAD2F0
:1038300021464046FFF722F848B94FF0E023D3F87D
:10384000F03DD80700D500BE0020BDE8F883A3787E
:10385000DB0916D0194800F0F4FBA3782A796B71C4
:10386000A3880020C3F30A03A3F500714B424B4128
:1038700063F341022A71FFF75FFF237801361C448E
:10388000C5E70F4800F0DDFBA378404685F82931F5
:10389000A3880C49C3F30A03A3F5007253425341B2
:1038A00095F8282163F3410285F8282100F091F969
:1038B0000028E2D1C1E700BF8CE1002098E10020A0
:1038C000BCE20020B4E2002038B5054619481C4689
:1038D00090F829318B4204D043798B4218D00020D4
:1038E00038BDB0F8343133B1D0F82C11A2B200F5A4
:1038F000987000F022FB104B23B100200F49A2B2B8
:10390000AFF3008028460E4900F063F90120E7E795
:103910000C4B1BB10020A1B2AFF3008028460A492E
:1039200000F020F90028F1D122462846064900F08F
:10393000E5F8EBE78CE10020000000000CE100203E
:10394000B4E200200000000090E1002013B599B916
:103950000124084601A9ADF80440FEF71BFF40B959
:103960004FF0E023D3F8F03DDA0700D500BE02B0F7
:1039700010BD0D4B1C70FAE7012801D80B7843B934
:103980004FF0E023D3F8F03DDB0700D500BE002068
:10399000EDE7054C012B235401D00120E7E7FEF7AA
:1039A000F9FE0028F9D1EBE7D1E80020F8B504785A
:1039B000054614F001040E461BD107787A0713D48C
:1039C0004FF0FF31304600F063FC2C7814F0010416
:1039D0000CD12B785B0704D401242B7843F004032B
:1039E0002B70304600F05CFC2046F8BDC7F3800425
:1039F000F7E70024F8E770B50E4604464FF0FF31B4
:103A0000304600F045FC2378C3F380055B0708D5FA
:103A1000237813F0010211BF0025237862F382039B
:103A20002370304600F03CFC284670BD8388C07887
:103A3000C3F30A0300F00300022814D003281CD0AB
:103A400001280ED1022940F2FF3208BF4FF48062F4
:103A50009A420ED24FF0E023D3F8F03DDB0700D5B9
:103A600000BE00207047022904D1B3F5007FF1D1D8
:103A700001207047402BFBD9ECE7022914BF4022FC
:103A80004FF480629A42F3D2E4E730B50A4491429F
:103A900000D330BD4C78052C06D18C7804F07F051E
:103AA00000EB4505E4092B550C782144EFE7F7B509
:103AB00015460278089FBDF8246061F300020446B1
:103AC000394600F8082B00933246012300F059F9DB
:103AD00057B14EB104F11C063046FDF771FA0DB135
:103AE00035460026C4E9055601200A9B6360BDF8EF
:103AF0002C30638003B0F0BD01207047F8B5064656
:103B0000084610F8083B0C4613F0020F0CBF402586
:103B10004FF40075174600F061F908B10020F8BDB8
:103B2000002FFBD0013D3D42F8D12378DA07F5D4D0
:103B300030466178FEF7F2FE0028EFD0237813F0CC
:103B4000010307D04FF0E023D3F8F03DDB07E5D5C4
:103B500000BEE3E71A4630466178FEF7FFFE002814
:103B6000DDD1EFE770B5064601F108000C4600F024
:103B700035F9C8B12378DA0716D430466178FEF7F4
:103B8000CDFE88B16288616804F1080000F081F917
:103B90002378054603F00103A0B13BB14FF0E023C9
:103BA000D3F8F03DDB070BD4002070BD03466268FC
:103BB00030466178FEF7D2FE0028EFD02846F4E7C1
:103BC00000BEF1E7002BEFD130466178FEF7B6FE7C
:103BD000EAE78A89F8B506460C460B78F2B9DD07A4
:103BE0000DD44978FEF79AFE48B12378D90708D555
:103BF0004FF0E023D3F8F03DDB0700D500BE0020F6
:103C0000F8BD638861783BB162683046FEF7A6FE76
:103C10000028EDD06088F3E71A46F6E701F10807BF
:103C200013F0020F38460CBF40254FF4007500F02A
:103C3000FFF88542E3D82378DA07E0D4304661788C
:103C4000FEF76CFE0028DAD0384600F0F1F8237851
:103C5000854203F0010315D8002BC9D16D4263885A
:103C60000540ADB29D4228BF1D46617845B16268EE
:103C70002B463046FEF772FE0028B9D02846BFE733
:103C80002A46F5E7002BBAD130466178FEF756FE9A
:103C9000B5E70A4492B2914202D8B2EB400F02DB80
:103CA000A2EB400292B21046704770B50546AC8850
:103CB000D61A0846B1B206EB4406B6B29A4238BFED
:103CC0003146B1B18C4205D2944294BF121B1219F5
:103CD00093B26B819C4209D9EA882968C2F30E022B
:103CE00002FB031100F02AFA012070BD1B1B9BB2DE
:103CF000F0E70846F9E72DE9F047BDF82040858850
:103D00008846191B8EB201EB450189B2A34238BF28
:103D10000E460746FEB1B54206D22E469D4294BFDE
:103D20005B1B5B199CB24481B24228BF324696B2FB
:103D3000A54213D9FA88A5EB040939681FFA89F955
:103D4000C2F30E0A4E450AFB04110AD8404606FB90
:103D50000AF200F0F3F93046BDE8F087641BA4B224
:103D6000E6E719FB0AF940461FFA89F2751B00F0D5
:103D7000E5F9621912FB0AF2396892B218FA89F071
:103D8000E7E7B2F5004FF8B504460F4616461D4664
:103D900022D8C06818B14FF0FF3100F079FA2069DD
:103DA00018B14FF0FF3100F073FA9DF81830C5F3E9
:103DB0000E0545EAC3350023E06863812760A680CD
:103DC000E580238108B100F06BFA206908B9012071
:103DD000F8BD00F065FAFAE70020F9E7024613891A
:103DE0005289808892B29BB2934236BFC2EB4002A6
:103DF0009B1A9B189BB2984228BF184670470289AD
:103E0000438992B29BB2D31A5842584170470389F2
:103E10004289818892B29BB2934236BFC2EB410283
:103E20009B1A9B189BB299428CBF002001207047BF
:103E300003894189828889B29BB28B4236BFC1EB2C
:103E400042015B1A5B189BB29A4286BFD01A80B2BD
:103E50000020704738B5044600690D4618B14FF090
:103E6000FF3100F015FA22896389294692B2204673
:103E70009BB2FFF71AFF61890246054689B2A08806
:103E8000FFF707FF6081206908B100F009FA2846B2
:103E900038BD73B5044600690D46164618B14FF09B
:103EA000FF3100F0F5F923896189324689B200912A
:103EB000204629469BB2FFF71EFF61890246054650
:103EC00089B2A088FFF7E5FE6081206908B100F0A3
:103ED000E7F9284602B070BDF8B50446C0680F4641
:103EE00018B14FF0FF3100F0D3F925892046ADB26B
:103EF000FFF78DFF20B1E379C3F3C0161B0613D57E
:103F00002846A388834215D9E2882368C2F30E02AB
:103F1000394602FB003000F011F901222946A08841
:103F2000FFF7B7FE01262081E06808B100F0B8F97C
:103F30003046F8BDC01A80B2E4E72DE9F84F0546D7
:103F40000E469046002A3FD0C06818B14FF0FF31AE
:103F500000F09EF9EB792F8969891B06AC88BFB206
:103F600089B234D48F4235BFC1EB4403791ADB19CF
:103F70008BB238BF9BB2A34261D2E31A9BB24345D6
:103F800028BF43461FFA83F8B946A14540D2EA88C4
:103F9000A4EB090A28681FFA8AFAC2F30E0BC2457D
:103FA0000BFB090039D331460BFB08F200F0C6F8D1
:103FB00042463946A888FFF76CFE44462881E868E7
:103FC00008B100F06DF9A0464046BDE8F88FA04565
:103FD0000BD3002CF3D0EB88A8EB0408C3F30E033B
:103FE00003FB08660F46A046CEE78F424FEA440225
:103FF00036BF531A7B1ADB199BB243449342C3DB8F
:10400000A4EB0802204692B2FFF743FE0746BBE747
:10401000A9EB04091FFA89F9B7E71AFB0BFA314635
:104020001FFA8AF2A8EB040400F088F809EB0402F6
:1040300012FB0BF2286892B216FA8AF1B6E7002456
:10404000BDE710B50446C06818B14FF0FF3100F06D
:104050001FF9206918B14FF0FF3100F019F9002362
:10406000E0686381238108B100F01AF9206908B182
:1040700000F016F9012010BD38B50446C0680D46A1
:1040800018B14FF0FF3100F003F9206918B14FF07B
:10409000FF3100F0FDF8E379E06865F3C713E371E1
:1040A00008B100F0FDF8206908B100F0F9F801202E
:1040B00038BD000030B584078646034606D0A2B35B
:1040C00003F8011B980702F1FF32F8D1032A26D921
:1040D0005FFA81FC0F2A0CEB0C2C0CEB0C402AD95C
:1040E00022F00F0C9C44C3E90000C3E90200103326
:1040F0006345F8D112F00C0F02F00F0517D04FEA0C
:10410000950C1A460CF1FF3403EB8C0C42F8040BAF
:104110006245FBD1043305F0030203EB840322B1B3
:104120001A4403F8011B9A42FBD1704630BD2A465F
:10413000002AF5D1F9E71546E1E700BF844641EAD8
:10414000000313F0030349D1403A23D30B68036003
:104150004B6843608B688360CB68C3600B69036105
:104160004B6943618B698361CB69C3610B6A0362ED
:104170004B6A43628B6A8362CB6AC3620B6B0363D5
:104180004B6B43638B6B8363CB6BC36340304031BA
:10419000403ADBD230320BD30B6803604B6843608C
:1041A0008B688360CB68C36010301031103AF3D253
:1041B0000C3205D351F8043B40F8043B043AF9D2E1
:1041C000043208D0D2071CBF11F8013B00F8013BB4
:1041D00001D30B8803806046704700BF082A13D3C1
:1041E0008B07B1D010F00303AED0C3F10403D21A91
:1041F000DB071CBF11F8013B00F8013BA4D331F8E9
:10420000023B20F8023B9FE7043AD9D3013A11F868
:10421000013B00F8013BF9D20B7803704B784370F7
:104220008B7883706046704720F0030110F0030024
:10423000C0F1000051F8043B00F1040C4FEACC0C33
:104240006FF000021CBF22FA0CF213434FF0010C76
:104250004CEA0C2C4CEA0C4CA3EB0C0222EA0302B5
:1042600012EACC1204BF51F8043B0430F4D0C2F17E
:10427000000102EA0102B2FA82F2C2F11F0200EB6F
:10428000D2007047F8B500BF5FF800F0610200206F
:104290005FF800F0F70100205FF800F03106002021
:1042A0005FF800F02B0200205FF800F041050020CD
:1042B0005FF800F0ED0500205FF800F0C30100207A
:1042C0005FF800F01D0500205FF800F011010020EC
:1042D000DD1A0010591A0010851A00104D1B00102D
:1042E000BD1A0010011A0010051B0010D119001092
:1042F000F50F0010091B0010C51300102D1A001037
:10430000F11A0010A11A001055060010BD0A001085
:084310009D23001011020010B2
:104318004661696C656420746F20696E69746961AF
:104328006C697A6520444D410052657365747469FF
:104338006E672E2E2E004E6F20444D41206368611B
:104348006E6E656C732061726520617661696C615F
:10435800626C65000A2A2A2A2050414E4943202AC5
:104368002A2A0A004E6F207370696E6C6F636B7334
:104378002061726520617661696C61626C65004ECE
:104388006F207573657220495251732061726520E0
:10439800617661696C61626C65004861726477611D
:1043A800726520616C61726D20256420616C726594
:1043B80061647920636C61696D6564004861726449
:1043C80020617373657274004D696E53697A655222
:1043D800656C00626F6F74325F77323571303830D8
:1043E80000302E3100322E322E30007069636F3269
:1043F800007069636F5F626F6F7479004175672041
:104408003136203230323600555342207374646995
:104418006E202F207374646F75740052617370621C
:1044280065727279205069005069636F00426F614C
:1044380072642043444300526573657400556E6886
:10444800616E646C65642049525120307825780A81
:1044580000657020253032582077617320616C72B6
:104468006561647920617661696C61626C6500439D
:10447800616E277420636F6E74696E756520786647
:104488006572206F6E20696E616374697665206558
:104498007020253032580000A844001009FF01019F
:1044A8002BA08A2080F00820C300808008609FFE2F
:1044B800892006005250D3F07542D0430010060000
:1044C8005250E182887FDB430010060052503ABC0C
:1044D800A911E943001006005250ABB36053ED43F5
:1044E800001006005250BBFF3CB6F3430010060014
:1044F8005250861C0302F943001006005250542201
:10450800A29D0444001005005250DE65F468C423DF
:1045180001100D0A00000000631E001000000000DA
:10452800651E0010711E00109D1E0010991E0010BF
:10453800000000000A00000000000306A6000800B2
:10454800020002009C001400030057494E555342D4
:1045580000000000000000000000800004000100CE
:104568002800440065007600690063006500490082
:104578006E007400650072006600610063006500EB
:10458800470055004900440000004E007B006200CF
:1045980063003700330039003800630031002D0014
:1045A80037003300630064002D00340063006200AC
:1045B80037002D0039003800620038002D0039001E
:1045C8003100330061003800660063006100370085
:1045D8006200660036007D000000050F2100011C06
:1045E800100500DF60DDD88945C74C9CD2659D9ECB
:1045F800648A9F00000306A600010006005250537B
:10460800B4F4A1104400100000000000234400107E
:1046180030440010F7E90020354400103F440010F2
:1046280009025400030100807D080B000202020009
:10463800000904000001020200040524002001050D
:10464800240100010424020605240600010705814F
:104658000308001009040100020A0000000705020F
:104668000240000007058202400000090402000021
:10467800FF00010512011002EF0201408A2E090015
:1046880000010102030100000000000021340010B5
:1046980091340010B5340010F13400109135001039
:1046A8004D360010000000000000000049370010DF
:1046B800A5370010C1370010E5370010F11E0010B3
:0846C800C938001000000000D9
:0846D0006CFAFF7F01000000FD
:1046D800BA440010C6440010D2440010DE44001052
:1046E800EA440010F6440010024500100E45001080
:0446F8000346001065
:1046FC00034630B50268EFF3108472B6D2E8CF5F90
:10470C000120002DFAD1C2E8450F002DF6D1BFF3E0
:10471C005F8F93F90420002A0BDA4FF050420120EE
:10472C0012681A711A680023C2E88F3F84F310884C
:10473C0030BD09B90020F5E70A60FBE72DE9F0412F
:10474C001F464FF05043044616460025D3F8008010
:10475C002268EFF3108372B6D2E8CF0F0121002844
:10476C00FAD1C2E8401F0028F6D1BFF35F8F94F94D
:10477C0004102268002908DA84F80480C2E88F5FEC
:10478C0083F310880120BDE8F081C2E88F5F83F3CA
:10479C0010883046394600F08BFB0028D8D000201A
:1047AC00F1E7D3B501A9044616461F46FFF7A0FF53
:1047BC0078B94FF050439DF9042093F900309A4298
:1047CC0007D032463B46204602B0BDE8D040FFF74A
:1047DC00B5BF02B0D0BD70B50C46054600F074FBF9
:1047EC0002460B464FF47A70E4FB00234FF0FF3087
:1047FC006FF00041904271EB03043CBF02460B4644
:10480C002846BDE87040FFF799BF10B50368EFF379
:10481C00108272B6D3E8CF4F0121002CFAD1C3E835
:10482C00441F002CF6D1BFF35F8FFF230168037187
:10483C000023C1E88F3F82F3108840BF10BD0000F9
:10484C000022114608B5D30003F1A043013203F551
:10485C0080130F2A9960D960F5D14FF47072002142
:10486C00034800F035FB034B034A1A6008BD00BF38
:10487C0060E400202CE80020800110502DE9FF4757
:10488C00002501264FF4E069194B1A4FD3F858A0B4
:10489C00DFF86480BAF1000F01D0202D02D104B0F2
:1048AC00BDE8F0871AEA060F1FD0EB4305F0FE04B3
:1048BC0003F001031C4408EB44142046BE6500F0D1
:1048CC00D9F980B1E38AA2780393002301A80121CE
:1048DC00ADF804908DF808208DF8093000F0E6F959
:1048EC00204600F06DF92AEA060A76000135D1E778
:1048FC00000011500030115020E400202DE9FF4140
:10490C005D4BD3F8985015F4003430D000265B4B37
:10491C005B4C9A6A5B4B1A60334694F83B20022A34
:10492C0008D194F83A702FB194F83C30002B40F039
:10493C0095803B460136102E04F14004EDD13BB975
:10494C00514B1B7823B94FF40032504BC3F89020D5
:10495C004FF44072484B01219B6C01A8C3F30A032E
:10496C00ADF8042002934FF4003400F09FF9EE06EA
:10497C0003D544F01004FFF781FFE80331D502267C
:10498C004FF001083E4F44F48034BB7E93B1404B52
:10499C00394A1E66536E36EA0303FBD14FF440527C
:1049AC000021384600F012F9384600F009F9374B6F
:1049BC005E661E66012E87F8038007F1200755D12D
:1049CC004FF4C063ADF80430324B93E80300CDE9EB
:1049DC000201314601A800F069F94FF400322B4B6B
:1049EC001A65E90414D50026234B44F480541E6048
:1049FC00FFF726FF4FF48073012101A8ADF80430B6
:104A0C008DF8086000F052F94FF400221F4B1A6524
:104A1C006A040CD54FF48063012101A8ADF8043071
:104A2C0000F044F91022194B44F480441A652B040D
:104A3C000DD54FF4A063012101A8ADF8043000F0AE
:104A4C0035F94FF40062114B44F400441A65AC4242
:104A5C000ED0114884EA050100F032FA002304F16B
:104A6C00200084F83C3000F0D3F862E701268CE794
:104A7C0004B0BDE8F08100BF0000115000000B40F5
:104A8C0020E4002018E40020B0E800200030115091
:104A9C000020115000001050454400100346F0B5A2
:104AAC00808A1A8BDC78824228BF0246251E18BFEA
:104ABC00012584F00104801ADC705C78988242F441
:104ACC00806040EA453064B9D3E9034504EB8114B6
:104ADC00013CAE18B5420BD11C6940F400401444A3
:104AEC001C619B8A0BB940F4804001B10004F0BDFD
:104AFC0015F8017B04F8017FECE70000074B1B6CF9
:104B0C0013F0020307D18278D20904D0C07E831E31
:104B1C005842584170470020704700BF00001150A8
:104B2C0008B5FFF7EBFF50B1054B986A054BA0F5A4
:104B3C0048701B68C01AC6288CBF0020012008BD15
:104B4C0000000B4018E400208268034630B5106862
:104B5C0001B1000C5A78C0F3090042B9DA8A024458
:104B6C00DA821A8B824284BF00229A8230BDDA68C4
:104B7C0002EB81111A690C18013AA14206D1DA8AAA
:104B8C000244DA821A6902441A61EAE711F8015BFD
:104B9C0002F8015FF1E710B50446836800211B6839
:104BAC00FFF7D2FF63681B685B0008D5238B834239
:104BBC0005D12046BDE810400121FFF7C5BF10BD4F
:104BCC000023C0E9043383767047000010B5836876
:104BDC0009B11C682140A2B1540541EA020110D56B
:104BEC001A68520503D58178074800F069F921F459
:104BFC0080621A60054B1B6C9B0702D40C23033B91
:104C0C00FDD28368196010BD59440010000011508A
:104C1C00436870B5002105461C68FFF73FFF144B35
:104C2C0040F480561A6CAB78920718D513F07F03BA
:104C3C0018BF0123AA8AB2B1ABB901212846FFF7EC
:104C4C002DFF24F00054064344F0A0446B68324618
:104C5C0028461C600021BDE87040FFF7B7BFDB0998
:104C6C0083F00103E6E724F0A04444F00054EDE7A0
:104C7C000000115038B5857E04461DB981780A486C
:104C8C0000F01EF9FFF787FFA38A33B12046FFF728
:104C9C0047FF20B1012323770025284638BD204645
:104CAC00FFF7B6FFF8E700BF774400102DE9F0439B
:104CBC0043780446023B0E4685B0042B15D8DFE83A
:104CCC0013F00500CD0038004100E4000021714BC9
:104CDC001A7822F001021A701A7822F002021A7065
:104CEC0059701A7861F382021A706B4B1D686B69EC
:104CFC00EFF3108272B6D3E8CF0F01210028FAD15E
:104D0C00C3E8401F0028F6D1BFF35F8FAA6121468C
:104D1C00284600F0D1F800236A69C2E88F3FAB69DE
:104D2C0083F31088002800F0858032466178207863
:104D3C00A8E0584B1A78D70740F183801A7842F0D4
:104D4C000402D1E7534A1378DD077AD5137823F0A0
:104D5C0004031370C9E79A4276D9D9F8002012EBF4
:104D6C00431374D101353A78EBB2511C9942F2DA03
:104D7C00484F3B78580734D54FF000083B78CDE9C5
:104D8C00018823F004033B70CDF80C8023788DF858
:104D9C00043005238DF805303F4B1D686B69EFF32C
:104DAC00108272B6D3E8CF0F01210028FAD1C3E8E4
:104DBC00401F0028F6D1BFF35F8F2846AA6101A9D6
:104DCC0000F07AF86B69C3E88F8FAB6983F31088B6
:104DDC0000284AD14FF0E023D3F8F03DD90700D595
:104DEC0000BEFB78DA072CD523788DF8043003232A
:104DFC008DF8053063680293274B1C686369EFF3E9
:104E0C00108272B6D3E8CF0F01210028FAD1C3E883
:104E1C00401F0028F6D1BFF35F8FA261204601A985
:104E2C0000F04AF800236269C2E88F3FA36983F35C
:104E3C00108810BB4FF0E023D3F8F03DDB0700D512
:104E4C0000BE05B0BDE8F0839B1A08EB4313DB6989
:104E5C00002B87D061682078984783E700250F4F97
:104E6C00DFF84080DFF840907DE732469DF8051072
:104E7C009DF8040000F030F8B3E732469DF80510B9
:104E8C009DF8040000F028F8DBE7054A137801339D
:104E9C005FE700BFD3E80020FCE00020AEE8002074
:104EAC00E7E900209046001050DF002000000000D1
:104EBC005FF800F07D1600105FF800F0D93E00108E
:104ECC005FF800F0F10400105FF800F04D170010CF
:104EDC005FF800F0B54000105FF800F0612700109B
:104EEC004C6963656E73656420627920536F6E79CB
:104EFC0020436F6D707574657220456E74657274A5
:104F0C0061696E6D656E7420496E632E0000001F22
:104F1C0000388040FFFF0A240380093C80EB083CEA
:104F2C0000588A4000488A4000288940001889406F
:104F3C0000388840A78C083C240008ACC624083CE8
:104F4C00FFFF0835280008AC87AC083C2C0008ACE7
:104F5C00C014083CFCFF0835300008AC8424083C25
:104F6C0004000835340008AC0008083C280008355B
:104F7C00380008AC0924083C440008353C0008AC57
:104F8C008040083C00380835400008AC043C083C24
:104F9C001C800835440008AC8434083C783E083545
:104FAC00480008AC1F3C083C1D8008354C0008AC80
:104FBC00FF37083C64110835500008AC053C083C30
:104FCC0000BF0835540008AC0008083C090008353F
:104FDC00580008AC0634083CC73408350800E00318
:104FEC005C0008ACFF1D80083C00100825FF1E80EB
:104FFC00093C308A2925F905000911001EAD040071
:10500C00DE2EFDFF0915CE1D0424DF0605240EC07F
:10501C0006BB081BD0FFFFBD2748BE02342C00FD89
:10502C00BFAF2800B3AFBF38B2AF2000B1AFF61C92
:10503C0000B0AF3AFF438C2EF1023C75E1DB4234F9
:10504C00586214BB4C4E27B35BEC7F71004424A414
:10505C000064FF14720042243AE406BA0C978CDD0B
:10506C000F18BFF624B000022409DFF840E3BEB3EA
:10507C00E62F58B3EE0F473C01180E26668E6F0EC6
:10508C000324D007FF070C8D1043A01FE7653FD604
:10509C002F8E1EBB80172500F6601425988EBBC67C
:1050AC00862E6E103C0FDA25881E250B480066BC38
:1050BC00E51690DB66E59F3FC007048E4AB3E58793
:1050CC0003ED0040160A06B03CF7F71C8005D6EC41
:1050DC00043CDC920B3674A5EF2428EB2EC0EE8436
:1050EC00243B5EF76E26775F75160200C8052433E5
:1050FC00018676D820160E13968F0B1781366062B8
:10510C00A29B169694C16E2630B7840F8F8F055FC5
:10511C00CA15914077FF2548407067A836C2604E8B
:10512C0042070B3802AC836C0EC98C75EEC284CF6F
:10513C00173E02045F6E176D0640ACCDDFB602B0B1
:10514C00A1DFCB50661778785A789608762E2719F7
:10515C0088F6F2D8877377770A6EF1038E888853B6
:10516C007E3F5B1046113CBE1D5712FF06133CB828
:10517C00C731DA2694B68EE6574EED4228CDDE14B2
:10518C00ED86000C8E10DC00AE470B001124D933D9
:10519C00EA97C5F3D98704ECE3F01FEC2EF90FF76F
:1051AC00A423429FB6845110E70FBF430286DB1A3B
:1051BC001E000DD900072EEF2A28D60834101BB775
:1051CC001400DBA2AF24A0AF6D1E0724B806062482
:1051DC006C7DE654F3AE9654B60837584E36765876
:1051EC00FACF261EAEEFD00040AFEFB20C07DFD9DE
:1051FC0095DAEFD9D7FC0FF25EFF6214A845BF1702
:10520C005AFF0010046F28F8E0AEE2F3E1C70D5E20
:10521C0045B4EF16983D5E989FE6CF82A6286AFEAD
:10522C000F00A530FCFFA2897614CE2C3716601027
:10523C0080D118021FF064C55106214FC64A428620
:10524C008C5F7640008F18043B66D88EB89F54163E
:10525C000DB7177084E48464BF5DB400A78DB6E805
:10526C00A68D66DCA58D37C01E9DE63F309AB9240D
:10527C007920E71C9018B958E7349E302C79280B0C
:10528C009E80447940E73C9038B9A8E7549E504C36
:10529C0079480B9ED0647960E75C9058B9F8E77454
:1052AC009E706C79680BCD20BA843C80F37CC878F6
:1052BC005C48F394DE8C2E88F34690B03F3370DB61
:1052CC00046717177C1ED0F371DF31D860BE87BE20
:1052DC001674FBFF40787F50BA9E1D2EDF051EEE24
:1052EC00A22DBFB84C27DE061E9E79283907E79AF7
:1052FC0093509E0896797C3909E79293A09E0A8E6A
:10530C0079B4390BE78A93D89E0C86EBDFB91F373B
:10531C0083169E24251B7000DEFD7A8C2510084216
:10532C00175F43B6241643AEFA0E3003F01FED8A16
:10533C0001325E9EFA323B869010C16A8EFF87AEB8
:10534C0037DA2118717B5A6D707E2860012538A0E0
:10535C009D1C16FE7FF101A6DD20874A82257EE882
:10536C00422912FDDE21586D01F56EAEF0588629EA
:10537C00E66D0E14B03B565A33564C021E87B95E7E
:10538C00E13000048F6F20E17A1E7562776006D3DE
:10539C004E77AEEF0EDE8E60AEB21A99776167A6CD
:1053AC000647D8011EA0000AAF1E4001813F5E9641
:1053BC0000681A4007686D08021E13DB442202F8CD
:1053CC00FFE05A27EAAD0E17241A040608C00F8F07
:1053DC0057A2F66D080D77B620E00307AE81FFA744
:1053EC00BEAF25F0E9A00306D186C678C2AF06BFD2
:1053FC0017E64203B88E40A0861457B7F8C0AFFE2C
:10540C0006960DEFA155AF86F6AB408FD8FF2FB99E
:10541C00053666C1C28FBF7734167B7FEE02EE6015
:10542C007F162F05A17F66807F5D4F04215E1000E3
:10543C00499005AE204B9006AE404FE8D803BEAF66
:10544C0042300A01B76036C7DA18C58FF7F7B0815A
:10545C00445FB708DD8FFA060C818FB70467257C93
:10546C000A7A00538F040EC6014EDD9017096EEFB9
:10547C0006D7270426E9676D31402F70275B7E2005
:10548C00E1EF6EDE2BFE063C6CB6053C501E2F7A0F
:10549C0028EB060C606F6150508E5C36C077605FF5
:1054AC00CFC2A38B18CEB612DFDC16C38F1C1787A6
:1054BC0021DF10620A43806C26C48F1977A01E82EC
:1054CC0038CE4E9F6BE6625FDA7EC07147E7247B75
:1054DC0016AF87993EAF5E2A7EEBE0FF4014808FBB
:1054EC0010700E83C0078337412C27615ADF1FAB26
:1054FC00AE82C24D97836604BF04B16F322158222D
:10550C000F1920390C3B211F7108589FB3EF067DF2
:10551C00033CC4816376961043170FA002B14F6F02
:10552C006F25E8C0034FBE8F3D8F52FE64D6E0E777
:10553C001C5F9EEE247920363EB0C40E05C200607E
:10554C005654262842E73B0F8FFFE6B0182F18045D
:10555C006EEE27271803F816633020EF58870619CC
:10556C00782C2E7F150B9F448722EDA6833EC58B8E
:10557C008356DB8319478B265E0F362C70770E16FD
:10558C0001F6829EF4308000285CDFD495B47F3025
:10559C002B099EFBF700160E5C03063A1F2479209C
:1055AC00E428B00A0F161464BEE1EFE8CF14FC87B0
:1055BC00C03B56064F1C140DBFAEB790298E86EE1D
:1055CC007D0E80148C2713361668C4AF863F034CAF
:1055DC00583F5EA6AF1C8A47EF1C1F4447C12B6681
:1055EC00D1E947762047E108B05769E7F42C5ABF58
:1055FC005A0B17763718824902B0676C7F5555766F
:10560C00BEAAFF892F761FAA2A6C550092E93F90FB
:10561C00318C065788443420B4E17F8287164015BC
:10562C007E04445F6C27C925B0C703F0205BAEDB5A
:10563C00938EC3937E9F3060D80628403C9F449540
:10564C00DE244EBF1F86070012EE7F6FBC121E03B6
:10565C009872BFB3E74F00C9105AE157A6079FBB1A
:10566C0064EF56E44FC49731E8F37614C910BB8746
:10567C00021044EFE025189B97031F0E30400EBE1E
:10568C0060FB2790CF5BB7A7149E10184B9EE01CB5
:10569C0079182F041013F1B710D62FC0DF0CB49764
:1056AC00141D6F7514D76E8C0F2E7EBE440F0CC25A
:1056BC00772B0FB6001FA80716A718DC2287E71C4C
:1056CC009E182042B8001DC729F186A300D2A7F965
:1056DC00271131C0A7C8005D00146F5A1E67F41063
:1056EC0040A000567F015F83573D43A000118F6C93
:1056FC00373303B4972082171442BF2A1F181005A2
:10570C001FF1090062475F036B3F92116210A19F6A
:10571C0000E076381087C5406760821F1D80FF89C6
:10572C001F6A5F1C60003097486A87A10C0708E06D
:10573C00C7844F564C57EE40AC0F9D08D427645687
:10574C00EFD710C48E66DE060DFC30F8D142241261
:10575C00185CC73690FF060E2A6FDC67D756436677
:10576C005E7FF682001210676401E403F8070062A2
:10577C001C474C42CBA0DE447177218667017050E8
:10578C00272095CE4720B08E43AC500F36044FE403
:10579C00048B820C5FED0CEF6C4F030D2700053F63
:1057AC0017106EEF1448BB144F7310C50C17006123
:1057BC009C9F93FF02D79008FF6408B8FFFD6E68AA
:1057CC001196F70E6B3E76B77EA4C1060C032F58CC
:1057DC0004B73104E797BE813452EF8E6E90079672
:1057EC00F6060062270E107816EE07C625773612DD
:1057FC006FB69660F6C38F03469F6C17104FD2405E
:10580C00E4375027B85F1A574B0AFFD857788212E3
:10581C000216677727F8824553DF67643444246A9D
:10582C0080EB52AF25DEB02697DF61E7749F379E81
:10583C00D1193797E01CAC4710EFB2BA61C6C3E779
:10584C000C044F5BF7030C90830993028218970C9E
:10585C0050C626C60EF01300621450BF3628C7027D
:10586C00E401C5B70AE20710A80FB13BA6AF9DB380
:10587C00C3AF36B4C4BF8DEE1E17046FAA0F6205FA
:10588C0074CE45365FC227A5A77950C4E462A41331
:10589C00573C86831F0C51CFC1806EAB5F432F37B3
:1058AC005B5FA450B9042B9023B9602E084B5CA805
:1058BC00CC5F1785DA70BF2E0BC55FDA80BF2C4228
:1058CC00370B0DDF0A4FFE378CC54637C16F0ADE2A
:1058DC003ED06F0C02905C03905C0490587697EC71
:1058EC0083234F18FCA7874AF7A3449F02885F19AC
:1058FC004702E4AC2BC118840F133C621FE46CB458
:10590C00406FD8A84FBBC81F17EC25DA216FF224C3
:10591C008544DA483FED136F727415DA094FE4A031
:10592C002B143F40EC00868F4D088B1F9040BC78A9
:10593C008602776C802F5DB48B1F9204C11F50368A
:10594C00E01F2F1487041F04E3508774C7074C62B1
:10595C00BFEC541F5C8096B36EC0D84CBFD62B22C4
:10596C0037762EF9679C280A0F2F00AD9706790E13
:10597C0010E0280246809CA89E6E9FF69C09AEDA29
:10598C0018F36774AC872A173DF3D9A9EF851ACDA4
:10599C001740AE27154E204B9310C7D7FF874E9854
:1059AC00090A2E024E034E8C7C6A01930C2581C190
:1059BC00FF70F8F08E04D687116EC21865C6C257F8
:1059CC00FB368F085F05B1470A842F580384462F96
:1059DC0066C5AF3800E8C6AF30324EBAA705CE3038
:1059EC001B9887056EFF1B3DF7195D0E03D8000051
:1059FC001FE79448DDE61714A51AF6EF965987BEF3
:105A0C004FAD9F1E04109AEF34ED9FD657383FF2DE
:105A1C0004994C389D1C428F90E6675EE2C78F025A
:105A2C00E1979CAFC0C43666B3FAB18F0EAF20F8C5
:105A3C0096FFFF6DBED4FF978F1F4FFE040B974F41
:105A4C001754222B9FE2104280158F836F71AC1775
:105A5C0042773F177B64174724DF0364205CF18592
:105A6C007206585EB6B3776E6F598077B169272C82
:105A7C00E730AC28FB4F8316DE8F268F007C06ECBC
:105A8C00C6014317A353A04E83A1078D4DC227CE49
:105A9C0036EFE90F0062838719FA5F428C55277441
:105AAC00FCD72F0E05E7F63900006F8F1C886A4F64
:105ABC00446D2763AEB45517D28FE2A7F53C88C569
