:020000041000EA
:10000000002008205D0100101B0100101D010010E0
:100010001101001011010010110100101101001058
:100020001901001019010010190100101F01001022
:10003000110100101901001021010010230100100E
:100040001101001011010010110100101101001028
:100050001101001011010010110100101101001018
:100060001101001011010010110100101101001008
:1000700011010010110100101101001011010010F8
:1000800011010010110100101101001011010010E8
:1000900011010010110100101101001011010010D8
:1000A00011010010110100101101001011010010C8
:1000B00011010010110100101101001011010010B8
:1000C00011010010110100101101001011010010A8
:1000D0001101001011010010110100101101001098
:1000E0001101001011010010110100101101001088
:1000F0001101001011010010110100101101001078
:100100001101001011010010110100101101001067
:10011000EFF30580103800BE00BE00BE00BE00BE7A
:1001200000BE00BEF2EB8871E85200100C530010C4
:10013000A001001090A31AE7D3DEFFFF42012110B7
:10014000FF010000B09D0000793512AB4FF00000B8
:100150001E49086006C881F3088810474FF05040D8
:10016000006810B14FF00000F2E70DA40ECC00299A
:1001700002D000F012F8F9E71549164A002000E015
:1001800001C19142FCD11449884714498847144958
:10019000884700BEFDE701C901C29A42FBD3704700
:1001A0000C53001010010020EC4C0020E89E0010C1
:1001B0000000082000000820E89E00100010082021
:1001C00000100820000000007047000008ED00E06B
:1001D000EC4C00203C590020611F001079030010F6
:1001E000591F0010F8B500BF064B0749C91A8910FE
:1001F00048BF0131491003D0044B0BB101481847E7
:10020000704700BFEC4C0020EC4C002000000000C8
:1002100008B5054B1BB105490548AFF30080BDE8A3
:100220000840FFF7E1BF00BF00000000C0580020F9
:10023000004F001011F0010208B513D18B0700D454
:1002400008BD02210A2000F06DFA124B124A9B6A87
:1002500012689B1AB3F5FA7F4FF0010214D30F4BCB
:100260001A7008BD0B4A0C4BD2F828C0012100229D
:100270000A20C3F800C000F055FABDE8084001228A
:1002800002210A2000F04EBA0A20BDE808401146BB
:1002900000F048BA00000B40B05800203759002049
:1002A0002DE9F0410646174608204FF000434FF471
:1002B00080328846002406F12F4586B005F560059A
:1002C00005932D0D3B182A4902920635BA1C1B03D3
:1002D00043EAC213EDB243F0C043049129460393AD
:1002E00000F0E4F92946092000F0E0F90121082096
:1002F00000F090FA0121092000F08CFA039A0823FB
:1003000022F0F85242F010620392414622463046F3
:10031000009404F029FC059A164B134043F0A453B3
:1003200005932046294600F0C1F92046012100F03E
:10033000DBF920460121013400F0E4F9082CF0D16A
:10034000059B039A23F0604323F4F84343F00043F2
:1003500043F4A05342F0C04405933A464146304628
:1003600002AB039404F046FC06B0BDE8F08100BF88
:100370000000045000FC0FE02DE9F84F01F0F0FE02
:100380000A2000F057FA0A234FF0000242EC4430F2
:100390004449454804F064FB0021C2B24248FFF7DB
:1003A0007FFFDFF828A1414BDFF824B1404FA3EBDA
:1003B0000A09012004F042FB3E4B840103EA40336A
:1003C00004F1A04243F011030028C2F800A08046C7
:1003D000C2F804B0C2F80890D3605DDB0A254FF084
:1003E000010343EC44504FF0000646EC40502E4AC7
:1003F000FA20136843F00103136001F0D9F946ECC9
:1004000044504FF050456B685E0505D4012001F063
:10041000CFF96B685805F9D50122274D274B0A20E3
:10042000114600F0A3F92B782BB9012001F0C0F997
:100430002B78002BF9D04FF050467368590505D43E
:10044000012001F0B5F973685A05F9D51C4801F08F
:10045000CBFE01234FF0A042002103FA08F32970DC
:100460001444C2F86434E3685B01FCD4404604F0F1
:10047000DFFA4FF0004110200B4B1A6822F0010206
:100480001A60104AC7F8D010C7F8D01010601A6868
:1004900042F001021A608CE70B4801F0A5FE012032
:1004A000BDE8F88FA850001000002050484C0020F4
:1004B00000102050FFFF01FC3759002035020010CA
:1004C0001C4F001000202050004F0010E00D0020B5
:1004D000100020504FF050422DE9F84F6E4BD2F8EB
:1004E00000A053F82A70BAF1000F2BD0DFF8B481C6
:1004F00067B30026DFF8A4B1DFF8A491F3080C334A
:1005000058F8235034460836C5B105F00F012D09BF
:1005100089B15BF82A2004F00703E240E0089B0061
:10052000D20701FA03F300F18C0C03D4204649F8FA
:100530002C30B84715B10134B442E6D3202EDDD1BA
:10054000BDE8F88FDFF86081002FD2D1534DFC0851
:1005500004F10C0358F8233007F10800002B7CD07D
:1005600013F00F064FEA13120AD055F82A10F9407B
:10057000C90703D44A498C3441F82460002A6CD05E
:1005800012F00F024FEA13210DD055F82A407E1CBD
:10059000F440E40705D4F408414E12018C3446F8C7
:1005A0002420002959D011F00F014FEA133407D04D
:1005B00055F82A20BE1CF240D20758D5002C4CD04A
:1005C00014F00F044FEA134107D055F82A20FE1CFF
:1005D000F240D20752D500293FD011F00F014FEA67
:1005E000135207D02D4C54F82A603C1DE640F60704
:1005F0004BD592B312F00F024FEA13610DD0274C86
:1006000054F82A607C1DE640F60705D4244EE40821
:1006100012058C3446F82420F9B111F00F014FEA8D
:1006200013731FD01D4CBE1D54F82A20F240D20770
:1006300005D4F2081A4E09068C3246F82210073704
:100640005BB154F82A20FA40D10706D41449FF08B8
:100650001B0707F18C0241F8223020283FF470AFCD
:10066000074674E7002BF8D00C4C0737E9E7F2088F
:100670000B4E09028C3246F822109FE7F208084E12
:1006800024038C3246F82240A5E7054EE40809040D
:100690008C3446F82410ACE73C540020005900206C
:1006A0000080024090820240488202404FF4807CE9
:1006B0000C4B00B553F8202003EB8003C00082F000
:1006C000400200F1804003F5805E02F0C00200F5B8
:1006D000203003F54053CEF800204160C3F800C03D
:1006E00000BD00BF04800340054B53F8202003EBFE
:1006F0008003514001F0010103F5805319607047F8
:1007000004800340064B53F8202003EB800382EA69
:10071000011202F0300203F580531A60704700BFE7
:10072000048003404FF050431B6893B10C4B4FEAD9
:10073000D00C00F00700800081400A4803EB8C03D6
:100740000CF18C0C40F82C102AB103F50053196001
:100750007047054BEBE703F540531960704700BF46
:100760009082024000800240488202402DE9F04120
:100770004FF0504690461D463268214B0F4653F8C5
:100780002210044682B031B38DB3114643F8225093
:10079000C9B11C4BE10804F007041B48A40007FA88
:1007A00004F403EB81038C3140F82140B8F1000FD1
:1007B0000BD00121152003F500531C6002B0BDE8E9
:1007C000F04100F079B9114BE4E703F540531C60A8
:1007D00002B0BDE8F08145B143F8225015200A4629
:1007E0000B4900F0E3F93168D2E71146D0E7084938
:1007F0001520019200F0D4FA3168019A004BC5E748
:100800003C54002090820240008002404882024016
:10081000D5040010064B402203EB800319B103F509
:1008200000531A60704703F540531A60704700BFC9
:10083000048003404FF0000300B543EC440043EC58
:1008400040004FF0050E4FF4807C0C4BC20053F873
:10085000201003EB800081F0400102F1804303F59A
:10086000203301F0C00200F5805100F540500A60CD
:10087000C3F804E0C0F800C000BD00BF048003401E
:100880000FB400B5084883B001F0AEFC049B3BB147
:1008900005A91846019101F045FB044801F0A4FCAC
:1008A000012001F057FB00BF2C4F00103C4F0010FF
:1008B000EFF3108072B6064BD3E8CF1F0122002958
:1008C000FAD1C3E8412F0029F6D1BFF35F8F7047FB
:1008D000275000200023034AC2E88F3F80F310888E
:1008E000704700BF2750002070B51646EFF3108404
:1008F00072B6DFF848E0DEE8CF2F0123002AFAD1F4
:10090000CEE8423F002AF6D1BFF35F8F012301F00A
:10091000070CCA0803FA0CF310F802C01CEA03051E
:1009200008D14CEA030C00F802C0CEE88F5F84F3D4
:10093000108870BD3046FFF7A3FF00BF275000208E
:10094000F8B50F461946EFF3108672B61C4DD5E880
:10095000CF4F0123002CFAD1C5E8443F002CF6D13B
:10096000BFF35F8F8A421BD8012402E0013291421B
:1009700022D3D30810F803E002F0070C04FA0CFCB1
:100980001EEA0C0FF2D14EEA0C0E00F803E01046FE
:100990000023C5E88F3F86F31088984207DBF8BD37
:1009A0000023C5E88F3F86F310884FF0FF30002FFB
:1009B000F5D00698FFF764FF4FF0FF30E8E700BF7F
:1009C0002750002000B5EFF3108E72B6104BD3E81D
:1009D000CFCF0122BCF1000FF9D1C3E84C2FBCF1FD
:1009E000000FF4D1BFF35F8F01224FEAD10C01F069
:1009F000070102FA01F110F80C2022EA010200F8C6
:100A00000C200022C3E88F2F8EF3108800BD00BF9A
:100A100027500020044A1078431CDBB2182B28BF53
:100A200010231370704700BF484C002000B5DFF85A
:100A30001CC083B001461F231822CDF800C0024815
:100A4000FFF77EFF03B000BD4C540020404F001064
:100A50004FF0E022936843F000539360704700BF6B
:100A60000021044B03F12002C3E88F1F013393429E
:100A7000FAD170471C5000204FF0E0234FF0803235
:100A8000C3F80024C3F80424C3F80824C3F80C24D2
:100A9000C3F81024C3F81424C3F81824C3F81C2482
:100AA000C3F82024C3F82424C3F82824C3F82C2432
:100AB000C3F8302462B67047012300F01F02934050
:100AC000400941B1800000F1604000F56140C0F88C
:100AD000803103607047024A203042F8203070476E
:100AE00000E100E00123064A410952F8212000F00C
:100AF0001F008340134214BF01200020704700BF35
:100B000000E100E001224309034900F01F00824098
:100B1000403341F82320704700E100E0054A1030DF
:100B20009268054B52F82000C01A2F288CBF002075
:100B30000120704700ED00E04C4C002010B582B061
:100B4000EFF3108472B6164BD3E8CFCF0122BCF17D
:100B5000000FF9D1C3E84C2FBCF1000FF4D1BFF363
:100B60005F8F104A10309268DFF83CC052F82020A6
:100B7000624508D0914206D0CDE9000101F0BCF8F1
:100B80000199074B0098074A926842F82010BFF37A
:100B90005F8F0022C3E88F2F84F3108802B010BD4E
:100BA0002550002000ED00E0110100102DE9F04F6C
:100BB00006468A46154683B0EFF3108872B6714F29
:100BC000D7E8CF2F0123002AFAD1C7E8423F002AF5
:100BD000F6D1BFF35F8F6C4991F90020002A7BDBCF
:100BE0006A4802EB420400EB840393F806C0103617
:100BF00081F800C06649A40089684FEA420B51F8A9
:100C000026E0AEEB00012F292ED962498E4540F037
:100C1000848043F0010E604B02340444043B1B1BF0
:100C2000C3F34A036FEAC3434FF421416FEAD3434E
:100C30005A4420F8221000EB820253804BF60153F5
:100C40009380FF23D571C2F808A09371504B9B6825
:100C500043F826E0BFF35F8F0023C7E88F3F88F398
:100C6000108803B0BDE8F08F2EF0010C9CF807103F
:100C7000A9425AD9B14601941E4603E0CB79AB4252
:100C800030D98C469CF9064004EB4401002C00EB63
:100C90008101F3DA00944BF6015433464E460CF1D1
:100CA0000409043BA3EB0903C3F34A036FEAC343FC
:100CB0006FEAD343ACF80430384B0BEB02018CF8ED
:100CC000062040F82130009B00EB81029480937154
:100CD000D571C2F808A0B9E701F00EF82A4991F9D8
:100CE00000207DE76FF007010094019C33460C1B48
:100CF0006146241A019431F8044F4E4644F30A0425
:100D0000023401EB4404894601990C44C4F34A04BB
:100D10006FEAC4446FEAD444C3E7CDE9002300F08E
:100D2000EBFFDDE90023194873E71B4AA11CDD71C5
:100D30000144043A251D521A0544ACF10401491B33
:100D4000C1F34A016FEAC141C2F34A026FEAC242EB
:100D50006FEAD1414FF4214E6FEAD24299800F4998
:100D600020F804E05A804AF6AA256246121A524137
:100D700055432D0DC3F808A09D7143F0010ECCF82A
:100D8000001063E725500020335900204C4C002010
:100D900000ED00E0110100107C4C0020014880476C
:100DA0002DE9F04F034685B0EFF3108772B6764C0D
:100DB000D4E8CF0F01220028FAD1C4E8402F002840
:100DC000F6D1BFF35F8F714A03F110069268DFF826
:100DD000D48152F8260040454BD0884257D06C4D04
:100DE000A0EB050CBCF12F0F43D84FF0010E4FEADA
:100DF000531C4FEA8C0C0CF1604202F56142D2F8B0
:100E000000C003F01F030EFA03F300920193C2F82F
:100E1000803003EA0C09BFF35F8FEFF30583DBB289
:100E20009A46002B35D09E4205D0CDE9020100F054
:100E300063FFDDE9020120F0010EDEF808C0614524
:100E400005D18CE0D3F808C0614532D09E469EF9AA
:100E5000062002EB4203002A05EB8303F2DA614528
:100E600060D0DDE90032B9F1000F1FD0C3F8802156
:100E70001A60464B9B6843F82600BFF35F8F002340
:100E8000C4E88F3F87F3108805B0BDE8F08F404677
:100E9000EFE720F0010EDEF808C06145D7D19EF9DA
:100EA00006B09B45734609DA404646E0C3F8802009
:100EB000DFE793F906B0BBF1000F34DB0BEB4B0C13
:100EC00005EB8C0292F807E04FEA8C0102919168E1
:100ED00083F807E092F906C09960BCF1000F83F82F
:100EE00006C04FEA4B0E38DB6FF0070C9288029970
:100EF00042F30A0201EB420208322A44ACEB030C33
:100F00006244C2F34A026FEAC2426FEAD2429A8056
:100F1000204BDE441A7805EB8E0E83F800B08EF875
:100F200006209EE77346BAF1000F1ED1FF228EF80D
:100F300006204BF60152AEF80420DFF858C04AF6FE
:100F4000AA229CF800E01946491B49414A43120D68
:100F500083F806E08CF8002083E70F4AD7E79EF974
:100F600006B07346BBF1000FA8DA0C4A0C4DD21A3A
:100F7000083AC2F30A316FEA01516FEA115145EAAA
:100F80005202DA8099806CE72550002000ED00E0E5
:100F90004C4C00203359002001BDFFFF864C00203F
:100FA00000F8FFFF110100102DE9F041EFF3058378
:100FB000DBB29E46EFF3108572B62949D1E8CF2FF8
:100FC0000123002AFAD1C1E8423F002AF6D1BFF33B
:100FD0005F8FDFF89C8040F00106D8F808704AF671
:100FE000AA2357F82E7004461E4AA41A644163438C
:100FF0001B0DB7425BB21ED092F906409C4220D036
:1010000092F912409C4227D092F91E409C4225D072
:1010100092F92A409C4208BF032413D0124A0024AC
:1010200092F800C0137080F806C0C1E88F4F85F3B6
:101030001088BDE8F081D8F808200C4C42F82E400A
:10104000ECE7002404EB440402EB8402FF249471D7
:101050004BF601549480E1E70124F3E70224F1E721
:10106000255000204C4C0020335900201101001065
:1010700000ED00E000B5DFF824C083B00146052391
:101080000022CDF800C00448FFF75AFC0028A8BF92
:10109000C0F1330003B000BD385900205C4F001090
:1010A000014B0B44036070471C50002070B5104C7E
:1010B000104DAC420ED2FF26236863B1FFF7AAFCA5
:1010C00001462046FFF7ECFFA680BFF35F8F083490
:1010D000AC42F1D370BDFFF79DFC01462046FFF7FF
:1010E000DFFF2671BFF35F8F0834AC42E4D370BDDD
:1010F000E44C0020EC4C002010B50446FFF78AFCBD
:1011000001462046FFF7CCFFFF232371BFF35F8F1B
:1011100010BD00BF10B504460120FFF787FC034B4C
:1011200003442360BFF35F8F10BD00BF1C5000203D
:10113000024B0B440360BFF35F8F70471C500020CD
:101140000D4B1A68EFF3108172B6D2E8CFCF0120B1
:10115000BCF1000FF9D1C2E84C0FBCF1000FF4D183
:10116000BFF35F8F00221B68C3E88F2F81F31088C5
:1011700040BF0020002170471059002000000000EF
:101180002DE9F04F2DED028B85B0EFF30583DBB237
:10119000103B9A0818BF01224FF0010103F0030B26
:1011A00018BFA94CA94B08BFA94C0BEB820253F8FE
:1011B000225001FA0BF204F541539FEDA18B0292EC
:1011C0005A602FE0AB88190440F19480AB79002B72
:1011D00040F0DE80B5F90860002EC0F21C816B691A
:1011E00006EB460603EBC603D3E90267B7F1FF3F00
:1011F00008BFB6F1FF3F0ED004EB8B01A36A0A696A
:10120000D21AF31A934205D30123226A03FA0BF38D
:10121000134200D10E61204600F0C6FBB042B94136
:10122000C0F2F980B5F90860029B002EE363C9DBC8
:10123000D5F8149006EB460A09EBCA07BB682046AE
:10124000D7F80C80019300F0AFFB019B984271EB43
:101250000801B7DBB8F1000FC0F2C080D7E9043154
:101260007C4A934200F0F8807A88B5F9080092B27F
:1012700042EA0040984702460B4652EA030100F05A
:10128000AD80002B80F2CD800199B1EB020E68EBAE
:10129000030839F93A30C7E902E8002B92DB6869A4
:1012A00003EB430200EBC202D2E90271BE4578EBC8
:1012B000010C4FEA430285DBAC462CF8083F06E000
:1012C00003EB430100EBC1015A00D1E90271BE45B5
:1012D00078EB01011A4405DB30F9323000EBC20C27
:1012E000002BEDDA29F83A30ACF80060AB8819042D
:1012F0003FF56CAF2B69EFF3108272B6D3E8CF0FD6
:1013000001210028FAD1C3E8401F0028F6D1BFF31D
:101310005F8F4FF6FF76A8880023296900B2AE8060
:10132000C1E88F3F82F310889842FFF64FAF07461F
:10133000A1466E6905F10808B5F9083007EB470EBC
:10134000002BC44606EBCE0215DBD2E90240AA46CA
:10135000019704E036F935309446002B09DB03EBA6
:10136000430506EBC502D2E90271BC4270EB0101F4
:10137000F0DA5546019FACF8007036F93E7026F859
:101380003E30002FD8DAAB794C46002B3FF422AF29
:101390000023AB71B5F90860721C33463BD0686915
:1013A00005F1080E03E08E465A1C3FF415AF03EB1F
:1013B000430200EBC2014F889C463F0430F93230B3
:1013C000F1D5664581ED028BEED0AEF8003029896B
:1013D000664620F83210A5F808C0E5E739F83A303B
:1013E0002B812B69EFF3108272B6D3E8CF0F012166
:1013F0000028FAD1C3E8401F0028F6D1BFF35F8F61
:101400006B88296929F83A3000236E80C1E88F3F44
:1014100082F31088D6E640BF05B0BDEC028BBDE874
:10142000F08F20460393019200F0BEFA019A039BCD
:1014300010EB020E43EB01082BE700BFAFF3008077
:10144000FFFFFFFFFFFFFFFF00800B40E058002081
:1014500000000B408111001008460B69039198476A
:101460000028BBD00399D1E9002306E738B5384BF3
:101470001C692CB1BDE838400A213648FFF710BE80
:101480000321354800F07EFA334D314BDD60FFF724
:10149000C1FA324A4FF0504E024403202C4B4FF019
:1014A0000F0C18701A61DEF800204FF6FF715A70A9
:1014B0005A69A3F802C014834FF00204A2F848400E
:1014C0004FF00404A2F878404FF00504A2F89040D1
:1014D0004FF00604A2F8A8404FF00704A2F8C0405D
:1014E0004FF00904A2F8F0404FF00A04A2F80841B6
:1014F0004FF00B04A2F820414FF00C04A2F8384141
:101500004FF0010414864FF00804A2F8D840144CA0
:101510004FF00D0E4FF00E0C9C6008249980A2F83D
:1015200050E1A2F868C1A2F8600011800D4A2C6257
:101530000D49D360FFF702FB01210320FFF7BCFA3E
:101540000A4B0A211C640348BDE83840FFF7A8BDD8
:10155000944C00201059002000000B401C5000202B
:10156000FFFF1000E05800208111001000200B4008
:1015700000487047944C0020F0B583B09DF8284097
:101580001D46034654B9CDE9000200F015FA019A50
:10159000009B824265EB0101A1425BDB1969EFF31D
:1015A000108072B6D1E8CF6F0124002EFAD1C1E8C5
:1015B000464F002EF6D1BFF35F8FB3F902401F698B
:1015C000002C3EDBD3F814C004EB440E3CF83E1074
:1015D000002659800CEBCE01C7E88F6F80F310888E
:1015E0004888C1E902250130C0F30E00012838BF48
:1015F0000120089A48800A61099A40EA04404A6139
:101600001A69EFF3108172B6D2E8CF7F0125002F5F
:10161000FAD1C2E8475F002FF6D1BFF35F8F9A88F7
:101620002CF83E201A699C80C2E88F6F81F31088E5
:1016300001211C78DA68A14002F50153596003B01A
:10164000F0BD0023C7E88F3F80F310884FF0FF30D4
:1016500003B0F0BD204603B0F0BD00BFF0B51646A4
:101660001F4602690346EFF3108072B6D2E8CF4FEF
:101670000121002CFAD1C2E8441F002CF6D1BFF39F
:101680005F8FB3F902101D69002945DBD3F814E020
:1016900001EB41023EF832400EEBC20C5C800024AC
:1016A000C5E88F4F80F3108805983546CCF81000B8
:1016B00006983E46CCF81400BCF80200CCE902566D
:1016C0000130C0F30E00012838BF0120ACF8020041
:1016D00040EA0140D3F810C0EFF3108572B6DCE8A1
:1016E000CF7F0126002FFAD1CCE8476F002FF6D12B
:1016F000BFF35F8FB3F804C02EF832C099801A6927
:10170000C2E88F4F85F3108801211C78DA68A14068
:1017100002F501535960F0BD0023C5E88F3F80F307
:1017200010884FF0FF30F0BD03464089B0EB214FE9
:101730003ADD58690A1402EB420210B5D3F810C022
:1017400000EBC200EFF3108E72B6DCE8CF4F01223F
:10175000002CFAD1CCE8442F002CF6D1BFF35F8FD8
:10176000428889B292B28A4207D000221B69C3E83C
:101770008F2F8EF31088002010BD6FEA42426FEA6F
:10178000524242800121002218699971C0E88F2FCE
:101790008EF3108893F800C0DA68084602F501530A
:1017A00001FA0CF1596010BD002070474078704775
:1017B0002DE9F04182B0064600F0FEF84FF47A734E
:1017C00004464FF0FF306FF00042E6FB0341A042B9
:1017D00072EB01033ABF044615460D46A61F45F1BC
:1017E000FF37B44275EB07033CBF0026374600F0D5
:1017F000E3F8301A67EB0101012871F1000106DA04
:101800002046294602B0BDE8F04100F0DFB800F004
:10181000D3F8864267EB010100290ADB0021174B50
:101820003246009316483B460191FFF717FF0130FF
:10183000E6D04FF0000C134A1349536A9F4204D874
:10184000906AB042DCD29F42DAD10B68EFF310808D
:1018500072B6D3E8CF8F5FF0010EB8F1000FF8D168
:10186000C3E848EFB8F1000FF3D1BFF35F8F0B6807
:10187000C3E88FCF80F3108820BFDEE7411100104E
:10188000944C002000000B4010590020EFF305821B
:10189000D2B282B1384B5A6A8A4202D20022104632
:1018A000704714BF012200229B6A834228BF42F086
:1018B00001021046704770B584B003922F4A064665
:1018C000D368157818460C46029300F06DF8029B19
:1018D00005F1040C53F82CC0039AACEB000C301A41
:1018E00064EB0101604571F100010FDB20BF224B69
:1018F000596AA14207D314BF012200229B6AB34256
:1019000028BF42F00102104604B070BD029200F000
:1019100053F8864264EB01010029029A1BDB184947
:101920002346CDE9001215483246FFF797FE011E07
:1019300011DD114B5A6AA2421CD39B6AB34217D3E2
:101940000E48FFF7F1FE0C4B5A6AA242D3D2002296
:10195000104604B070BD084B5A6AA242F7D3121B5E
:1019600018BF01229B6AB34228BF42F00102CAE7B6
:10197000A242E5D120BFE3E700000B40944C0020D9
:101980004111001010B4054B054C064AA04214BF8B
:101990001846581C10BCFEF7A7BF00BF50540020CB
:1019A00000800B40784F00100346416A0A46986A4F
:1019B000596A8A42FAD17047034B596A0A46986AB3
:1019C000596A9142FAD1704700000B40074A536AA6
:1019D0009942FCD8994207D1044B02E05A6A9142DD
:1019E00002D19A6A9042F9D8704700BF00000B40BC
:1019F00000EB400C4FEA8C0C0CF1804C0CF5803C59
:101A000070B51E46DCF80430041FB3F5803F38BFC4
:101A10004FF48033E4B238BFCCF80430012C2ED917
:101A20004FF40065284B0CF5405ECEF8005053F89B
:101A300020E0BEF1000F17D1DCF800E0012C8EEAA7
:101A4000421202F0E0020CF5805ECEF800202BD9A5
:101A50004FF4006143F820604FF480330CF50052DE
:101A60001160CCF8043070BD5D69B5FBFEFE0EF16F
:101A7000010E0EEB4E0EBEF1030EFCD2DCE7012987
:101A8000CED103240CF540531C60DCF80830DB0792
:101A9000FBD5DCF800300CF5805E83EA421303F0DE
:101AA000E003CEF80030084B0122DCF800404C4047
:101AB00004F00304CEF8004002FA01F1DCF808203B
:101AC0000A42FBD0C4E700BF54540020014B53F836
:101AD000200070475454002010B5029C8E464FEAF7
:101AE000043C4CEA034C1C4BB3FBF1F30168B2FB22
:101AF000F3F4002920DB194A194B904214BF4FF42C
:101B000080424FF4004217491A6003F580531A606F
:101B10008B6832EA0303FBD1212200F540530433E2
:101B2000C0F800E084601A600268002AFCDA08222B
:101B3000C0F80CC01A6010BD036803F03F03734582
:101B4000D9D18368C3F30B03A342D4D1C36803F490
:101B5000EE236345CFD110BD001BB70000800540C8
:101B600000200240000002404FF0804C214B00B5A5
:101B7000C3F800C0002839D0DFF888C0A3F540536F
:101B8000C3F81CC0DFF880C040F0010080EA0C0CF4
:101B9000C3F820C0596298624FF0804E4FF0E06168
:101BA000144B1548DFF864C0C3F800E0C0F808C063
:101BB00019602AB94FF00042A3F580531A6000BDA6
:101BC0004FF47A7303FB02F2B2F1807F2ABF6FF009
:101BD0007F4313461A464FF08041DFF834C0074870
:101BE000CCF80030064B4260196000BD034BD86151
:101BF000D2E700BF00B00D4000A0014000800D40C2
:101C000000A00D40D3C007B02D3FF84FF3FFFF01F8
:101C1000B8580020012300EB4000800000F1804014
:101C200000F5841041600360704700BF10B50024C8
:101C300082B00B46E48A002141E800F1CDE90003BF
:101C40004B0254BF1021042144F25220A047DDE989
:101C5000002386460A214FF48170F44602B0BDE8A5
:101C6000104060470023DB8A002242E800F2520263
:101C700001D4102118470421184700BF08B50346B6
:101C80000846191E02DB1AB140F03000FFF7CEFF04
:101C900040F02000FAE700BF034AD2F82838002BB2
:101CA000FBD0BFF35F8F704700000E400021044B54
:101CB000044ABFF35F8F43F8041B9342F9D1704786
:101CC0000C080E402C080E404FF42A6C4FF48D7017
:101CD000054A064B0649C2F800C0D0601960536837
:101CE000002BFCDA704700BF0080044000A00440D5
:101CF00000B0FA00704700BF08B50148FEF7C0FD0C
:101D00009C4F001038B5054C054DAC4204D254F838
:101D1000043B9847AC42FAD338BD00BFB84E001020
:101D2000F84E00100648DFF828C0064B064A07495F
:101D3000C0F800C01A608B6832EA0303FBD1704719
:101D40000020024000300240F6FFF3030000024092
:101D50007F3BEFEF044BDB6CB3F5004F03D14FF447
:101D60008022024BDA6470470000115000201150AD
:101D70004FF0E022044BD2F8881D0B43C2F8883D97
:101D800010EE3004704700BF030330006FF0604175
:101D9000044B054A19609368DB4333F06043FAD182
:101DA000704700BF003002400000024010B545F20D
:101DB0005320FFF757FFBDE81040034604201847A3
:101DC00010B545F25320FFF74DFFBDE81040034624
:101DD00001201847FEF744BE1449154B70B55C1A34
:101DE000A610442E324628BF4422124D92002846A7
:101DF00002F098FFB4F5867F13D80F4A14D0C6F1CD
:101E000044002B19410803EBC101C3E90022083348
:101E10009942FAD1C30704D520F00100304445F8B7
:101E20002020064B9D6070BD4320F8E700000010A5
:101E300010010010000000201101001000ED00E072
:101E4000002370B52B4C82B0C4F88430FFF73CFF00
:101E50000122294BDA63636C012BFCD10321264A52
:101E6000244B11639C6B012CFCD1022605252146D5
:101E70000523224A22480096FFF72EFE21462B46D4
:101E8000204A21480095FFF727FE00220420314612
:101E90001E4BFFF7ADFD2146284600221C4BFFF7E5
:101EA000A7FD0022082011461A4BFFF7A1FD0022D2
:101EB00009201146174BFFF79BFD00220620114613
:101EC000134BFFF795FD0022114B07201146FFF73A
:101ED0008FFD0420FFF7FAFD00240F4BA3FB003514
:101EE000AD0CE0B229460134FFF794FE062CF8D180
:101EF00002B070BD0000014000300140002F685961
:101F000000000540008C864700800540001BB7009C
:101F100080D1F008006CDC0283DE1B4300B97047FF
:101F200000F020B910B5094A84B014684CB10346DA
:101F300000914FF0FF3203A90548A047012004B0EB
:101F400010BD00F051F9204604B010BDB458002077
:101F50001D1F001000BEFDE708B5FFF7FBFF00BF27
:101F600038B5064C064DFFF7CDFEAC4204D254F80E
:101F7000043B9847AC42FAD338BD00BFF84E00107E
:101F8000004F0010036808461146184770B5054613
:101F90000846697D82B000294FD0002A25DD0378EC
:101FA00014460A2B064622D0012C4FF0000E0DD00D
:101FB0003246012312F801CF1946BCF10A0F03F192
:101FC000010320D09C42F5D1744505DD2B68A4EBBC
:101FD0000E0106EB0E009847311911F8013CA3F1F0
:101FE0000D03B3FA83F35B092B7502B070BD2B7D33
:101FF000002BD9D102212B6813489847012CEBD034
:102000004FF0010ED4E712F8010C0D28DAD08E45FE
:1020100006EB0E00A1EB0E0105DACDE900322B68CC
:102020009847DDE90032CDE9003202212B680648ED
:102030009847009B019A9E46C4E711462B6802B060
:10204000BDE87040184700BF245100102DE9F0474B
:1020500082B090461C460D460746FFF7ADFC4FF098
:10206000FF3C6FF000462E4A821841F10003944570
:1020700076EB03013CBF624633462A4802F014FF68
:102080006B1C824640D00CB3274E284B1C68B4B161
:10209000B8F1000F1CD1DFF89C8001E0246974B115
:1020A0002368002BFAD0D8F800300BB19C42F5D150
:1020B00020462A463946B0472469002CF0D1BAF1AF
:1020C000000F26D1284602B0BDE8F087184EDCE7A5
:1020D0004FF00A09DFF85C8002E02469002CEED0A2
:1020E0002368002BF9D0D8F800300BB1A342F4D10B
:1020F0002A4639462046B047012220460DF1070105
:102100008DF80790B047E8E7384602F081FE0546B3
:10211000B9E7044802F0BCFE284602B0BDE8F087EB
:1021200040420F00E44C00208D1F0010A4540020FA
:10213000851F0010AC540020084A136823B90AE038
:1021400003F110021B6933B18342F9D129B918692F
:1021500010601961704701B110607047A4540020ED
:1021600000F074BAF0B583B006468DF80700FFF7AB
:1021700023FC4FF0FF356FF00044174A821841F1FD
:102180000003954274EB03013CBF23462A461348E3
:1021900002F08AFE124B07461C689CB1114D01E00B
:1021A00024697CB12368002BFAD02B680BB19C42C8
:1021B000F6D1204601220DF10701FFF7E7FE246961
:1021C000002CEFD117B9304603B0F0BD034802F040
:1021D0005FFE304603B0F0BD40420F00E44C0020EB
:1021E000A4540020AC54002038B5044602F010FE80
:1021F000012305461A4620462946FFF727FF084BCC
:102200001C682CB163682BB198472469002CF9D164
:10221000284638BD2469002CF4D1284638BD00BFBB
:10222000A4540020704700BF0022014B1A70704771
:10223000345900204B79FF2B0BD1887948B9CB79E1
:10224000012B07D1082A05D9034B8A7809201A7077
:1022500070470020704700BF3459002001207047AC
:10226000012901D00120704708B5104B91881B78D7
:10227000994201D0002008BD5378012B08D0022BD1
:10228000F8D1002164220846FFF76EFC012008BD4A
:102290005188CB0548BF480AC1F3402258BF4FF0D0
:1022A000FF3001F07F01FFF7E9FC00BF3459002047
:1022B00000487047F0510010012907D15378012BD5
:1022C00002D19388072B03D000207047012070476C
:1022D0001146A623014A01F08DBA00BF48510010F3
:1022E0000346012201481A70704700BF28510010B0
:1022F00008B50B68B3F5966F00D008BD00224FF00B
:10230000FF301146FFF7BAFC024A034B1060196018
:10231000704700BF4454002048540020184B70B54B
:102320001A68002A28D0EFF3108172B6D2E8CF4F96
:102330000120002CFAD1C2E8440F002CF6D1BFF3E3
:102340005F8F00220F4C186859602270C0E88F2FF1
:1023500081F31088002400250B4E3078FEF7C2FB75
:1023600020B9002400252046294670BD3078FEF7AC
:10237000C9FB2046294670BD4FF47A740025EBE76F
:10238000D85800203659002035590020014B1878C4
:10239000FEF7B8BB3559002038B5044600200D467D
:1023A00001F062FBA8B3002001F074FB88B3FFF7D3
:1023B00003FB4FF0FF3E6FF0004C174A821841F1CB
:1023C000000396457CEB03013CBF7246634613480D
:1023D00002F06AFDE8B1002001F046FB58B9014661
:1023E0004FF0FF3000F02AFD6FF002040B4802F0BE
:1023F0004FFD204638BD002001F04CFB0028EED0F8
:1024000021462A46002001F04FFB04460028EDD16A
:10241000EAE76FF00204ECE740420F001459002095
:1024200008B5FFF7C9FA4FF0FF3E6FF0004C0F4AB6
:10243000821841F1000396457CEB03013CBF7246D4
:1024400063460B4802F030FD70B14FF0FF300021C1
:1024500000F0F4FC002001F06DFB0028F5D1BDE890
:102460000840034802F014BD08BD00BF40420F0001
:10247000145900202DE9F04107460E46FFF79CFA5B
:102480004FF0FF356FF00044324A821841F10003EB
:10249000954274EB03013CBF2A4623462E4802F0C6
:1024A00003FD08B9BDE8F081002001F0DDFA002845
:1024B00045D0002E3EDD0025DFF8A48012E0224644
:1024C000002001F081FB002105444FF0FF3000F0B7
:1024D000B5FC002001F02EFBFFF76EFAC8E9000101
:1024E000AE4227DD002001F08DFB741B8442A8BFA3
:1024F00004467919002CE2D121464FF0FF3000F05C
:102500009DFC204601F016FB204601F0ADFA88B193
:10251000204601F077FB0028E2D1FFF74DFA0F4A81
:10252000D8F800309B18D8F8042042F1000283420A
:102530008A41D5D20848BDE8F04102F0A9BC00208C
:10254000BDE8F0410021064BC3E90001024802F05A
:102550009FBC00BF40420F001459002020A107007B
:10256000384F002010B5002184B0324802F0A0FCA2
:1025700028BB314B1A6802B3EFF3108172B6D2E870
:10258000CFEF5FF0010CBEF1000FF8D1C2E84ECFE3
:10259000BEF1000FF3D1BFF35F8FDFF8A8C0D3F80F
:1025A00000E09CF800205960D3B201228CF8002092
:1025B000CEE88F0F81F31088CBB104B010BD00219D
:1025C0004FF0FF3000F03AFC002001F063FA0446BF
:1025D000184802F05DFC002CEFD0184B1B68002B54
:1025E000EBD0174A106804B0BDE810401847FEF75A
:1025F000BFFF0446FFF7E0F94FF0FF3E6FF0004CDD
:1026000010F57A7241F1000396457CEB030138BF67
:1026100063464FF000014FF0010C38BF7246DFF8FF
:1026200028E02046CDE9011CCDF800E0FEF7A4FF2C
:1026300004B010BD14590020D85800204454002084
:1026400048540020365900201D2300104FF05043FD
:1026500030B585B01C68FEF78BFFFFF7A7F8A042E6
:1026600002D0002005B030BD00212C4B08461B785D
:1026700001F0ACFD2A480368002B4BD00120FEF787
:10268000F9FC0346274C2849C0B22370FEF756FADE
:1026900020780121FEF710FA0E20FEF73FFA60BB0A
:1026A000224B6FF00044C3E90000FEF761FF0546CE
:1026B000FFF782F94FF0FF3C10F57A7241F1000309
:1026C000944574EB030138BF23464FF000014FF0EF
:1026D000010438BF6246DFF860C02846CDE9011426
:1026E000CDF800C0FEF748FF0028BADB01211048F2
:1026F000FFF722FD012005B030BD0120FEF796F95D
:1027000001460A48FEF714FD00220E200949FEF793
:102710004DFAEBE7FEF7F0FCB0E700BF08530010FE
:10272000145900203559002065250010D858002084
:10273000AC4C00208D2300101D2300100048704772
:102740008C520010004870473852001000B51C4AE7
:102750000346117883B031B363B940F209424FF4B4
:102760004173DFF860C0ACF802201648ACF80030C6
:1027700003B000BD052B20D8134ADFF848C052F83B
:10278000231060460023013903E0132B20F8022FA9
:1027900010D011F8012F0133DBB2002AF5D15B0014
:1027A00043F44073E1E701901121104600F024F852
:1027B000019BD1E74FF44A73D7E70020D8E700BF69
:1027C0001C5900207C5400202052001000B545F216
:1027D00047308BB0FFF746FA01220346092101A8D2
:1027E0009847DDE90332034912BA1BBAC1E9002355
:1027F0000BB000BD08590020012900F0BB80614AE0
:10280000013913784FEA231CBCF1090FCCBF0CF13E
:10281000370C0CF1300C012980F800C000F0AD80BD
:1028200003F00F03092B8CBF373330330229437079
:1028300000F0A38053784FEA231CBCF1090FCCBFF2
:102840000CF1370C0CF1300C032980F802C000F0B9
:10285000948003F00F03092B8CBF373330330429E6
:10286000C37000F08A8093784FEA231CBCF1090FF3
:10287000CCBF0CF1370C0CF1300C052980F804C0EA
:102880007BD003F00F03092B8CBF3733303306297D
:10289000437172D0D3784FEA231CBCF1090FCCBF2F
:1028A0000CF1370C0CF1300C072980F806C064D00D
:1028B00003F00F03092B8CBF373330330829C37162
:1028C0005BD013794FEA231CBCF1090FCCBF0CF18C
:1028D000370C0CF1300C092980F808C04DD003F0FA
:1028E0000F03092B8CBF373330330A29437244D08E
:1028F00053794FEA231CBCF1090FCCBF0CF1370C04
:102900000CF1300C0B2980F80AC036D003F00F030D
:10291000092B8CBF373330330C29C3722DD09379F8
:102920004FEA231CBCF1090FCCBF0CF1370C0CF1A2
:10293000300C0D2980F80CC01FD003F00F03092BB9
:102940008CBF373330330E29437316D0D3791A1125
:10295000092ACCBF373230320F2982730DD003F0F1
:102960000F03092B94BF303337331029C37318BFBB
:10297000103002D000230370704700230844037016
:10298000704700BF0859002010B500F039F90C233A
:102990001C4CFF22A3670E201B49FEF707F94022BB
:1029A00000211A4802F07AF94FF0800C0120174AF2
:1029B0000023A2F822C0507010464022144902831E
:1029C0000287144A81604360C2F88430C2F88030C4
:1029D00080F8213080F83B3043620F4BC360C36204
:1029E000803B836202F058FA4FF0005C4FF4803273
:1029F00001200A490A4B2064C4F84CC0C4F8901066
:102A0000DA6410BD0000115099030020B05400207A
:102A100084001050000010500001105010D0010030
:102A20000020115001210E20FEF746B80022024876
:102A3000114600F005B900BFD0540020044B1970B6
:102A400021B14FF40032034BC3F89020704700BF10
:102A500031590020002011500B785B0600D07047E0
:102A60004B78052BFBD14B88014ADBB21360F6E7AC
:102A700000001150CB7803F0030CBCF1010FC3F33D
:102A8000010062D02DE9F041002691F802E0364CB9
:102A90000EF07F0253008988984603EBDE1304EBA7
:102AA00043134FEADE15D876C1F30A0185F0010021
:102AB00083F802E019835870DE70D300002D32D104
:102AC0002A48043304EB821E1F18CEF808701E50EB
:102AD00092B3274B03EBC203CEF804303F31890990
:102AE000BCF1020F14BF8B01CB01224908EB050694
:102AF0000A6804EB461613440B601F49F2608B42D0
:102B00002DD808EB050304EB4314E17E82F0A042CC
:102B100082F48012636842EA816242F0004201203E
:102B20001A60BDE8F081114804EB821E0344CEF820
:102B3000283040F8326052B91346104A04EB45146D
:102B40000120E2606360BDE8F08100207047D200A0
:102B500002F1A04202F58012CEF82420BEE7FFF772
:102B6000CBF8F268CDE700BFB054002080001050D1
:102B700004001050BC580020FF0F105000011050EE
:102B800002F08AB908B59646DFF81CC001F07F0252
:102B9000C80900EB42000CEB40101A46714600F0E9
:102BA0004FF8012008BD00BFB054002011F07F0293
:102BB00005D100290CBF02200120064B9866C909E7
:102BC000054B01EB420003EB40104FF40062002183
:102BD00002F066B900201150B054002011F07F03BC
:102BE00000D17047002205485B0003EBD11300EBD6
:102BF00043106FF40061C27002F052B9B05400206B
:102C00004FF0805209480A4908B50A4B02600A6031
:102C10009968C94311F08051FAD14FF480520648A7
:102C200002F03CF80922054B5A6708BD002002401B
:102C3000003002400000024000001050000011501F
:102C400000234FF0010C10B5016180F81AC0828298
:102C5000C382044602F014F920B14FF40032074B4E
:102C6000C3F89020204602F003F910B10123237726
:102C700010BD2046BDE8104002F006B900201150FA
:102C80002DE9F04100241C4D064623462A78DFF842
:102C900078801A4F0DE03B6813EB441323D0DB68B8
:102CA000304698472A780134E4B2511CA1422346A9
:102CB00006DBA242A3EB0203EDD808EB4313EEE7D9
:102CC000542200210E4801F0E9FF4FF0FF330C4C75
:102CD0002022C4E90133C4E90333FF21BDE8F041F8
:102CE000084801F0DBBF4FF0E023D3F8F03DDB07ED
:102CF00000D500BEBDE8F08130590020404F0020D3
:102D0000485000205C500020A0520010704700BFC7
:102D1000704700BF0020704700207047704700BF19
:102D2000704700BF704700BF704700BF024B587824
:102D3000003818BF0120704748500020024B187817
:102D4000C0F38000704700BF485000202DE9F047D5
:102D5000DFF8E48098F80030FF2B53D100293CD0F5
:102D600054228A4681460021284801F097FF00221C
:102D7000274C284B20461A70FEF7BEF9264B2748F1
:102D80001C60274CFEF7C6F9204601F017FE254AC5
:102D9000254B146023B12548FFF7A2FA244B186095
:102DA0000024224D23462A78224F214E0DE033681D
:102DB00013EB441311D05B687BB198472A78013438
:102DC000E4B2511CA142234611DBA242EFD89B1A68
:102DD00007EB43135B68002BEFD14FF0E023D3F8F0
:102DE000F03DDB0700D500BE0020BDE8F08751466E
:102DF000484688F80090FFF7C7FD0028EDD0484608
:102E0000FFF710FE0120BDE8F08700BF485000200A
:102E100040500020325900209C500020D84C002007
:102E2000C44C0020A0500020E122001030590020A6
:102E3000404F0020A0520010E04C0020954B1B7822
:102E4000FF2B00F019812DE9F04F934C934DDFF8E3
:102E50006082934F8BB026687369EFF3108272B66D
:102E6000D3E8CF0F01210028FAD1C3E8401F002882
:102E7000F6D1BFF35F8FB261304607A901F0E4FBE2
:102E800000237269C2E88F3FB36983F3108800287A
:102E900000F0CA809DF81D30013B072B00F29E8395
:102EA000DFE803F0A5AF939B8C350A04089B002B49
:102EB000D1D009989847CEE79DF8201001F07F0601
:102EC00005EB460000EBD11090F8343023F00103FD
:102ED00080F8343090F8343023F0040380F8343034
:102EE000002E00F0A480037D98F80020934280F02B
:102EF00091806C4A126812EB431300F08E809E6939
:102F00009DF82120099B9DF81C00B047A3E73B7862
:102F1000002B00F082803B78013B3B703B7803F054
:102F2000FF00002B97D1DFF874A19DF81CB09AF830
:102F3000003043F001038AF800309AF8343060F32F
:102F400000038AF834309AF8343060F382038AF848
:102F500034309AF8353060F300038AF835309AF847
:102F6000353060F382038AF8353000F0A7FC9DF815
:102F7000203003F06002602A6CD0402A7DD003F03C
:102F80001F03012B00F0C380022B00F09380002B65
:102F900060D1202A00F00282002A5BD19DF8213006
:102FA000092B57D8DFE813F0BF01AF015600D1015C
:102FB0005600A001760156006A01F9002B78D90766
:102FC0007FF549AFFFF7B0FE45E7EB78DA077FF50D
:102FD00042AF0898FFF79CFE3DE72B78D8077FF5B6
:102FE0003AAF2878C0F3C000FFF79CFE33E79DF8A6
:102FF0001C00FFF745FE00F057FC9DF82030AB7039
:1030000029E79DF81C00FFF73BFE00F04DFCFFF7A1
:1030100087FE20E7501C984211DA4FF0E023D3F8E6
:10302000F03DDC0700D500BE0BB0BDE8F08F099B7A
:103030009DF821209DF81C0000F054FC0BE79B1A22
:10304000194A02EB43135AE7FFF77CFB02460028BC
:1030500040F094814FF0E023D3F8F03DDE0700D537
:1030600000BE9DF81C000021FFF7A0FD80219DF807
:103070001C00FFF79BFDEEE670470C4800F01EFCBD
:103080000121584608AAFFF717F900287FF4E3AE9C
:10309000E7E700BFE04C0020A0500020485000208F
:1030A00032590020404F0020A0520010B9220010D9
:1030B000305900209DF8241011F0700FCAD1B44887
:1030C00001F07F0390F800C00AEB430000EBD11041
:1030D000007D60454DD30CF1010E8645C0F2708134
:1030E000A0EB0C00DFF8ACC20CEB40100090002A03
:1030F00000F06A81009E706900F0E0FB01215846F3
:10310000736908AA984700287FF4A5AEA9E79DF83F
:1031100024300F2BA5D89E4A53441B791278934232
:1031200035D3511C99429CDB9A4E9B1A06EB4316F1
:10313000706900F0C3FB01215846736908AA9847DB
:1031400000287FF488AE9DF8203013F0600688D107
:103150009DF821300A3B012B83D800F0AFFB9DF88E
:1031600021300A2B00F01382584608A900F026FBF4
:1031700071E6DFF824C2DCF800C00CEB40100090D0
:10318000002A00F0218100283FF46BAFB2E7824AA9
:10319000166816EB4316CBD163E79AF801209DF829
:1031A0002230934200F064819AF80120002A40F016
:1031B000D8818AF80130002B00F05881013BD8B249
:1031C000FFF7C0FA002800F074814378022B40F02A
:1031D0007081C2799AF80010C2F340131B01C2F348
:1031E000801221F0300143EA42130B438AF8003089
:1031F000438800F10901C3180293029B8B4240F2FD
:10320000C3814B780B2B00F0CC810120042B40F0C4
:1032100050810022029B00925B1A1FFA83F95C4BDB
:1032200001921B7803901FE05B4B1B6813EB42136A
:1032300000F03F814A461E69584605910493B04705
:103240000246009B082A059903F1010003D9914524
:10325000049B80F012814E4BC0B21B7800905A1C28
:103260009042019000F32581009A01989342A0EBCF
:103270000303D9D8474A02EB4313DBE79AF801303E
:1032800058468DF81A300DF11A02012308A900F0F2
:10329000B1FAE0E5BDF82200030A5A1EC0B20E2AB8
:1032A0003FF6DFAE01A151F822F000BFE534001077
:1032B0006B330010213500106330001063300010B4
:1032C000033500106B3300106330001063300010C2
:1032D0006330001063300010633000106330001062
:1032E00063300010D734001008A800F0EDFA5846FB
:1032F0009DF82210FFF79AFB9AF8003043F0020382
:103300008AF80030A7E5BDF82230012B7FF4A9AE82
:103310009AF80030584623F0080308A98AF80030CC
:1033200000F04CFA97E558469AF800309A0802F0F7
:103330000202C3F340131343ADF81A300DF11A0221
:10334000022308A900F056FA85E5BDF82230012BCA
:103350007FF487AE9AF80030584643F0080308A976
:103360008AF8003000F02AFA75E5022B3FF46CAEC3
:10337000FFF7D2FC024600283FF473AE584653884C
:1033800008A900F037FA00287FF465AD69E600BFB0
:1033900030590020A0520010404F00209DF82430EA
:1033A0000F2B3FF65EAE924A53441B79127893423C
:1033B0001ED2904A166816EB43167FF49CAE50E678
:1033C000002A7FF44EAE00929DF821C00CF0FD0261
:1033D000012A16D0BCF1000F7FF43CAE0AEB430388
:1033E00003EBD11393F834305846C3F34003A3E7FB
:1033F000511C9942FFF635AE7F4E9B1A06EB4316E1
:1034000079E6BDF82220DAB97C48BCF1010F0078DA
:1034100000F08E80CDE90113FFF7C8FB029B0199F4
:103420000AEB430303EBD11393F8342042F002027A
:1034300083F8342093F8342042F0010283F83420DA
:10344000009B002B3FF407AD1E46586900F036FA8A
:103450007369012108AA58469847002000F02EFA07
:103460009AF83530DB073FF5F6AC7DE6FFF758FC00
:10347000584608A900F0A2F9EDE40398012800F0ED
:10348000A680002800F09280002391F802E007E077
:10349000009E8CF804605FFA83FC604540F28680F1
:1034A0000EEB030C5AFA8CFC9CF804600133FF2EDF
:1034B000EED04FF0E023D3F8F03DD90700D500BEA1
:1034C0004FF0E023D3F8F03DDA0700D500BE00232B
:1034D0008AF80130C5E5FEF7EBFE024600287FF4CE
:1034E0004DAFBEE5FFF72AF9024600283FF4B2AD22
:1034F0005846122308A900F07DF900287FF4ABACF0
:10350000AFE5FFF707FC024600283FF4AAAD584696
:10351000137808A900F06EF900287FF49CACA0E5B0
:10352000BDF82410FFF712F902460028EFD198E504
:10353000CDE902320191FFF751FB029B01990AEBA1
:10354000430303EBD11393F83410039A62F3410160
:1035500083F8341093F8341062F3000183F83410C8
:103560006EE7002158460193FFF768FA5846FFF7C7
:1035700007FB9AF8022058460092FFF781FB009A59
:10358000019B8AF8022014E6FFF7C8FB70E7584653
:10359000012308A90DF11A028DF81A6000F02AF92A
:1035A00059E40B78C87819444B782FE6009B1448EF
:1035B0000392009100F0BCFE0D4B039A00991B781A
:1035C0001144019A01339342BFF617AE71E7D3F865
:1035D00010C00C4B9C4508BF022055E74FF0E0237C
:1035E000D3F8F03DDB077FF536AC00BE33E400BF17
:1035F00030590020404F0020A0520010E04C002025
:103600005C5000200D3D00102DE9F84F0A9F002A64
:1036100040D00C461E4615464FF0000BDFF8809058
:10362000DFF8808016E0204698F8021099F800A094
:1036300000F04EFED0B121465046FFF71BFAE0B134
:10364000A3780BF1010BDA0920D1AB453B7021D0F7
:1036500023781C446378052B0FD1E17801F0030136
:10366000B1420AD1A37813F0700FDCD04FF0E02301
:10367000D3F8F03DDA0700D500BE4FF0E023D3F8D1
:10368000F03DDB0709D40020BDE8F88F0B9AAB456D
:103690001370DDD10120BDE8F88F00BEF3E700BF55
:1036A000E04C0020485000208B7813F0700F08D0B9
:1036B0004FF0E023D3F8F03DDA0700D500BE00203C
:1036C000704710B582B0084601910C490C4A8978C0
:1036D000147800F0FDFD48B94FF0E023D3F8F03D39
:1036E000DB0700D500BE002002B010BD20460199C6
:1036F00002B0BDE81040FFF7BDB900BF4850002040
:10370000E04C00200A46064B06481968D3093433BA
:1037100002F07F0203EB4203184400F08DBD00BFAE
:103720009C500020485000200A46064B0648196865
:10373000D309343302F07F0203EB4203184400F054
:10374000ABBD00BF9C5000204850002010B5194868
:1037500001F07F0400EB440000EBD11090F834C07E
:103760001CF0010F08D04FF0E023D3F8F03DDA074A
:1037700000D500BE002010BD00F1300494F804C054
:103780000D484CF0010C007884F804C0FFF7FAF9FA
:103790000028F0D14FF0E021227960F3000222717D
:1037A000227960F382022271D1F8F03DDB07E1D586
:1037B00000BEDFE748500020E04C0020DFF830C0BA
:1037C0000023624610B58E46044608684968CCF866
:1037D0000C3003C29EF800102046BDE8104081F076
:1037E000FF011A4601F08001CCF80830FFF7AEBFA8
:1037F00008500020DFF8ACC070B5154662460024C2
:103800008E4606460868496882B003C2CCF8085064
:10381000ACF80E40BEF80620934228BF1346ACF821
:103820000C308AB133B3DDB19CF90020402B28BFA6
:103830004023002A29DB21463046194AFFF786FF3C
:1038400070B1012002B070BD9EF80010134681F0E7
:10385000FF01304601F08001FFF778FF0028F0D12A
:103860004FF0E023D3F8F03DDB0700D500BE002089
:1038700002B070BD1A469CF8001001F0800130467D
:10388000FFF764FF0028DCD1EAE71A46294604481E
:10389000019301F047FA8021014A019BEFE700BF45
:1038A000C84F0020085000200022034BC3E900222B
:1038B000C3E902221A61704708500020014B1861C9
:1038C000704700BF085000200146054A4FF0000C29
:1038D000134600684968C2E902CC03C3704700BFC1
:1038E0000850002030B53E4CC90922780546B1EB9E
:1038F000D21F83B017D053B14FF0E023D3F8F03D7F
:10390000DB0702D4002003B030BD00BEFAE7214639
:10391000FFF7A2F823691BB12246032128469847E6
:10392000012003B030BD94F90020002A08DBA06814
:103930000028E7D01A462B49019301F0F3F9019BC7
:10394000E089A168E288184480B219448242E0818B
:10395000A16016D03F2B14D9A28994F90040131A04
:103960009BB2402B28BF4023002C28DB90424FF015
:10397000000132D01B4A2846FFF7E8FE0028CFD1CD
:10398000BAE7236923B102212846154A984768B14E
:1039900000232178284681F0FF011A4601F08001BA
:1039A000FFF7D4FE0028A7D00120BAE70146284639
:1039B000FFF7FCF880212846FFF7F8F8B0E79042BF
:1039C00008D01A460748019301F0ACF98021054A56
:1039D000019BD0E780210022CDE70A46CBE700BF5C
:1039E00008500020C84F002070B582B00446FFF791
:1039F0009DF908B902B070BDFFF7A0F90246002892
:103A0000F8D1C82304FB03F315492546CC18E07808
:103A10000028EFD010335E183046019200F002FE0D
:103A20003F28E7D9E1780198FFF76CFE0028E1D044
:103A3000304600F0F7FD3F28E1780AD94023DFF84F
:103A400024C001980CEBC51202B0BDE87040FFF72E
:103A50007DBE019802B0BDE87040FFF765BE00BFB3
:103A6000F04C0020444F002010B50446FFF75EF9EB
:103A700008B9002010BDFFF761F90028F9D1C8226C
:103A8000034B02FB0433187900F0010010BD00BFA6
:103A9000F04C0020C82208B5024B02FB003000F0B9
:103AA000A7FD08BD004D00204FF6FF732DE9F04142
:103AB000C8249A4228BF1A4600FB04F41B4D04F1A7
:103AC000100382B0804692B258195F1900F00AFEC6
:103AD0000646FFF72BF918B9304602B0BDE8F08171
:103AE000FFF72CF90028F7D12544EA78002AF3D013
:103AF0000190384600F096FD3F28EDD90198E9780D
:103B0000FFF700FE0028E7D0384600F08BFD3F2885
:103B1000E97807D9064A4023019802EBC812FFF75B
:103B200015FED9E70198FFF7FFFDD5E7F04C00201F
:103B3000444F0020F0B583B00546FFF7F7F810B901
:103B4000002003B0F0BDFFF7F9F804460028F7D1D4
:103B5000C82305FB03F31A4A03F124018F183846E2
:103B6000009300F045FD0028EAD0154A009B20464E
:103B7000D618B178FFF7C6FD0028E1D011493846C4
:103B800001EBC5114022009100F0ACFD96F802C097
:103B9000034670B1019061462046009AFFF7D6FDBA
:103BA00058B94FF0E023D3F8F03DDB07C8D500BE8D
:103BB000C6E76146FFF7B8FDC2E70198C1E700BF5D
:103BC000F04C0020844F002070B505464FF6FF7082
:103BD000C823824228BF0246094C92B203FB054427
:103BE000204600F043FE0646204600F001FD3F2837
:103BF00001D8304670BD2846FFF79CFF304670BDA7
:103C0000144D0020C82208B5024B02FB003000F022
:103C100009FD08BD144D002070B5002482B0C822F3
:103C20000021184801F03AF8FF234FF4E13108224F
:103C300015480470134800940646437181608273EE
:103C400000F1380101234022103000F0A1FC0123D3
:103C5000402206F17801009306F1B80506F1240030
:103C600000F096FC2846FDF747FA06F1C000FDF784
:103C700043FA06F1C000C6E90745C6E90C0402B0E4
:103C800070BD00BFF04C0020C44F00200A4B196BE0
:103C90001A6A61B13AB10022C3E90C22DA6100224A
:103CA0001A62012070470120C3E90C227047002AE4
:103CB000F7D0D961F3E700BFF04C00200022104993
:103CC00008B510480B7802600271DA0707D59B0728
:103CD0000CD5BDE8084001210B4800F08BBE103028
:103CE00000F06CFE06490B789B07F2D4064800F002
:103CF00065FEBDE808400121034800F07BBE00BF1F
:103D0000C44F0020F04C0020144D002070B54B79BA
:103D100084B0022B02D18B79022B03D000242046E1
:103D200004B070BD2B4B9B783BB14FF0E023D3F830
:103D3000F03DDB07F2D500BEF0E78B78054625485D
:103D400003700B78194491F801C0BCF1240F08BF2F
:103D5000092409D03BE00B78194491F801C02344B1
:103D6000BCF1240F9CB207D19442F4D90020FFF794
:103D70003BFE204604B070BD6346BCF1050F16D073
:103D8000042BF3D14B790A2BF0D1134B0A78019312
:103D90000133009302231646114428461A46FFF7C2
:103DA00033FC0028C1D00E3433199CB2DEE728461C
:103DB0000391FFF779FC03990028B6D08B78054A68
:103DC00053700B781A1919444B7894B2D8E76346AC
:103DD0000924D2E7F04C0020F24C0020137803F0C5
:103DE0006003202B0BD100B5DFF8BCC093889CF892
:103DF00000E083B09E4504D0002003B000BD002049
:103E000070475378203B032BF6D8DFE803F02C27CC
:103E10000D02012933D0032922D11E4B03B3002008
:103E20005188AFF300801BE0012928D0032917D166
:103E30005288194802F0010383F0010101938CF8C4
:103E40000420009200F0D6FD144949B1009A0020E8
:103E50000199C2F34002AFF3008001E0012912D0C2
:103E6000012003B000BD01290DD00329F8D10C4B6E
:103E7000002BF5D000200B49FEF73AFAF0E7114687
:103E8000FFF79CFCECE711460723064AFFF7B2FC5C
:103E9000E6E700BF00000000144D00200000000015
:103EA000F1220010F84C0020F04C00202DE9F041E8
:103EB000354C0D46E27807468A421E4682B02FD026
:103EC000A3788B4209D04FF0E023D3F8F03DDB0715
:103ED00024D4002002B0BDE8F0812C4B13B10020A7
:103EE000AFF300800020FFF725FE002847D12848C7
:103EF00000F07EFB002842D1002E40D016F03F0596
:103F00003DD13846A178FFF7FDFB002837D02B467E
:103F10002A463846A178FFF719FC30E000BED8E702
:103F20009AB21C4904F1100000F0A0FC1A4BD3B166
:103F30006279FF2A17D0B6B1164B03EB060802E0F0
:103F4000434510D0627913F8011B9142F8D1134810
:103F5000019300F05DFB019B0028F1D16179AFF383
:103F60000080019BECE70E4B1BB10C4800F050FBAE
:103F700038B10020FFF738FDA378AB42ADD0012067
:103F8000A8E7AFF30080F4E7F04C00200000000049
:103F9000144D0020444F002000000000004D002080
:103FA00000000000F0B54FF4137285B000211248F4
:103FB00000F074FE402600234FF480750E4F0F4C26
:103FC00007F5A6721946CDE90246009201951A46F8
:103FD00007F5947000F0D6F9002307F12801344466
:103FE000009101221946CDE902460195381D00F0E5
:103FF000C9F905B0F0BD00BFF0510020705100209C
:1040000008B5044800F0EAF9034800F0E7F9012098
:1040100008BD00BF18530020F451002038B500251A
:10402000064C04F59870257000F0C8FC04F10C00F3
:1040300000F0C4FC84F82951657138BDF0510020AE
:104040002DE9F8434B79FF2B05D1354F7E7997F851
:1040500029311E4302D00020BDE8F8838B780C780C
:104060003B700B79814688460C44002B34D0A51850
:1040700003E0AC4230D223781C446378052BF8D19E
:10408000AC4229D221464846FFF70EFB00283ED01D
:10409000A378DB0925D1234800F090FCA37897F89A
:1040A000282187F82931A3884846C3F30A03A3F5DA
:1040B0000073B3FA83F35B0963F341021A4987F88B
:1040C000282100F0FDF910B3237898F80420013678
:1040D0001C44F3B29A42D0D8A4EB080080B2BDE8E9
:1040E000F883124800F06AFCA3783A797B71A388C0
:1040F0000F49C3F30A03A3F50073B3FA83F35B0913
:1041000063F3410200203A7100F0A0F9DCE74FF0C0
:10411000E023D3F8F03DDB079DD500BE9BE700BF51
:10412000F05100202053002018530020FC510020A3
:10413000F451002010B5DFF890C004469CF8292106
:1041400082B08A421AD09CF805208A4202D0002010
:1041500002B010BD174A2AB199B200200193AFF303
:104160000080019B20461449019300F06FF998B933
:104170002046019A104900F033F90DE0BCF83421D3
:104180006AB90E4A22B100200D499AB2AFF30080FD
:1041900020460C4900F094F9012002B010BD9AB2FB
:1041A000DCF82C110CF59870019300F05FFB019B7B
:1041B000E7E700BF00000000F4510020000000000D
:1041C0007051002018530020F051002000B583B03A
:1041D000D9B101280ED80B7863B1DFF858C0012B94
:1041E0000CF8003002D0012003B000BDFEF7AEFD98
:1041F0000028F8D14FF0E023D3F8F03DDB0702D4DC
:10420000002003B000BD00BEFAE70122084601A964
:10421000ADF80420FEF79AFD012238B94FF0E023F3
:10422000D3F8F03DDA07ECD500BEEAE7014B1A708F
:10423000E7E700BF3C500020037813F001031ED1D4
:1042400030B50246007883B00446400702D51846D0
:1042500003B030BD08460D464FF0FF31019200F02B
:104260000BFE019A137813F001030BD11178490763
:104270000AD41178012341F00401117004E00023F5
:1042800018467047C4F380032846019300F000FEEF
:10429000019B184603B030BD70B50D4604464FF083
:1042A000FF31284600F0E8FD2378C3F380065B0762
:1042B00008D5237813F0010311BF0026227863F399
:1042C00082022270284600F0E3FD304670BD00BF38
:1042D000C378828803F003000228C2F30A0215D0D3
:1042E00003280AD001281CD1022940F2FF3308BF5D
:1042F0004FF4806393420DD37047022914BF4023CB
:104300004FF48063934205D30120704702290AD0FD
:10431000402AF9D94FF0E023D3F8F03DDB0700D570
:1043200000BE00207047B2F5007FEDD0F2E700BF7D
:104330000A44914225D291F801C0BCF1050F05D085
:1043400091F800C061448A42F5D8704700B591F8F1
:1043500002C00CF07F0E00EB4E0E4FEADC1C0EF894
:104360000C3091F800C061448A4209D991F801C02B
:10437000BCF1050FEBD091F800C061448A42F5D83A
:1043800000BD704770B584B0009390F800C0164629
:1043900061F3000CBDF8242004460123089900F8BD
:1043A00008CBBDF82C50039200F0F2F8089B0BB13B
:1043B000039A2AB901200A9B6580636004B070BD2E
:1043C00004F11C000390FCF797FE03981EB93346D6
:1043D000C4E90530EEE703460020F9E70120704705
:1043E00070B50646084640F2FF130C4610F8081B4D
:1043F00082B011F0020F01920CBF3F251D4600F064
:10440000F7F8019A28B922B1154202D12378DA07C8
:1044100002D5002002B070BD30466178FFF772F916
:104420000028F6D0237813F0010307D04FF0E023E3
:10443000D3F8F03DDB07ECD500BEEAE71A4630467C
:104440006178FFF783F90028E4D1EFE770B50546FE
:1044500082B001F108000C4600F0CAF810B12378D0
:10446000DA0702D5002002B070BD28466178FFF758
:1044700049F90028F6D06288616804F1080000F06C
:1044800031F92278034602F0010240B172B14FF0D7
:10449000E023D3F8F03DDB07E4D500BEE2E7002AD5
:1044A000E0D128466178FFF73FF9DBE701906268C9
:1044B00028466178FFF74AF90028E8D00198D2E74A
:1044C0002DE9F0418A890C4605460B7882B02AB95D
:1044D000DE0737D5002002B0BDE8F081990704F16E
:1044E000080047BF4FF47E484FF400764FF6C0787F
:1044F000402600F097F8864204F10807EAD82378AE
:10450000DA07E7D428466178FFF7FCF80028E1D005
:10451000384600F087F82378864203F001032ED84E
:10452000C3B9638808EA0002934228BF1346617842
:10453000002B2BD0626828460193FFF707F948B19A
:104540000198C8E74978FFF7DDF80028C2D0237842
:10455000D80707D54FF0E023D3F8F03DDB07B9D5F6
:1045600000BEB7E7638861783BB162682846FFF711
:10457000EDF80028EED06088ADE71A46F6E7002B8C
:10458000A8D128466178FFF7CFF8A3E71A46D2E70B
:104590002DE9F041B2F5004F9DF8185024D804469B
:1045A000C06898460F46164618B14FF0FF3100F02C
:1045B00063FC206918B14FF0FF3100F05DFC002270
:1045C000C8F30E03E06843EAC53362812760A68022
:1045D000E380228108B100F05BFC206908B100F0A3
:1045E00057FC0120BDE8F0810020BDE8F08100BF4C
:1045F000038942899BB292B28088934236BFC2EB54
:1046000040029B1A9B189BB2984228BF18467047DD
:104610000289438990B29BB2C01AB0FA80F0400977
:10462000704700BF038942899BB2808892B293424F
:1046300036BFC2EB40029B1A9B189BB2984286BFC2
:10464000C01A80B20020704730B5044600690D469C
:1046500083B018B14FF0FF3100F00EFC2289618960
:1046600092B289B2A3888A4236BFC1EB4300501A86
:10467000801880B268B3834209D29A422CBFD21A02
:10468000D21891B28B42618103D8C91A89B28B4288
:10469000FBD9E2882368C2F30E0202FB01312846EF
:1046A00000F040FB6289A38892B2511C89B28A4211
:1046B0004FF0010210D9002103FA02F0091A206913
:1046C000618118B1019200F0E3FB019A104603B03A
:1046D00030BD0246618989B2B1EB430F4FEA430016
:1046E000EDDBEBE72DE9F04105460069884682B035
:1046F00028B14FF0FF31009200F0BEFB009A2989EB
:104700006B8989B29BB2AC88994236BFC3EB440631
:10471000CE1A7618B6B2002E4BD0B44241D3B24274
:1047200028BF32469C4296B203D81B1B9BB29C42C8
:10473000FBD9B5F806C0E01A296880B2CCF30E02A6
:104740008642174602FB031125D910FB02F24046B0
:1047500092B20193009200F0E5FA019B009A341B9B
:10476000234408EB020013FB07F2296892B200F021
:10477000D9FA6A89AC8892B293199BB29A421AD933
:1047800062009B1A28696B8108B100F081FB3046FA
:1047900002B0BDE8F081404606FB02F200F0C2FA2A
:1047A000E7E7A1422CBF091B09198BB226466B8192
:1047B000B5E76B899BB2B3EB440F4FEA4402E1DBF0
:1047C000DFE700BF70B50446C0680E4682B018B17E
:1047D0004FF0FF3100F050FB2589238961899BB29E
:1047E00089B2A2888B4236BFC1EB42015B1A5B18CB
:1047F0009BB29A42ADB20BD8E179C90908D1E06801
:1048000018B1019100F044FB0199084602B070BD57
:10481000954228BF2B4617D39B1A9BB29342FBD2DB
:10482000E2882068C2F30E0202FB0300314600F06A
:1048300079FA6B1C9BB29D42A28811D900235100CA
:104840005B1A01212381DAE7E2882068C2F30E02B5
:1048500005FB0200314600F065FA0135A288ABB2D3
:10486000B3EB420F4FEA4201EBDBE9E72DE9F047FA
:10487000154682B0002A4AD00446C068884618B15E
:104880004FF0FF3100F0F8FAE17926896389C90910
:10489000A288B6B29BB23ED19E4236BFC3EB420362
:1048A000F31A9B199BB2934253D2D31A9BB2AB42D9
:1048B00028BF2B469DB27319B4F806C01FFA83F9BE
:1048C000A5EB020A9642334603D39B1A9BB293424E
:1048D000FBD2D21A91B22068CCF30E02A94217463D
:1048E00002FB030052D3414605FB02F200F01AFA24
:1048F000A3884E454FEA430202D8B9EB430F01DBD0
:10490000A9EB0209E0682A46A4F8089028BB1046E3
:1049100002B0BDE8F087954227D29E4236BFC3EB76
:104920004201F11A891989B250002944AF1A814213
:10493000BA4608DB991889B24E1BB6B2B342894613
:1049400038D9301A86B2AB191FFA83F9B4F806C009
:10495000B8E70022E0680028D9D0009200F098FA69
:10496000009A104602B0BDE8F087002AF2D0B4F8F1
:1049700006C0AD1A99181E46CCF30E0303FB05883A
:104980004FF0000A15461FFA81F99BE711FB02F26E
:10499000414692B20193009200F0C4F9019B009A43
:1049A000534413FB07F308EB020120689AB200F0AE
:1049B000B9F99DE7B042C4DDC8E700BF10B50446B1
:1049C000C06818B14FF0FF3100F056FA206918B1F5
:1049D0004FF0FF3100F050FA0023E068638123813B
:1049E00008B100F055FA206908B100F051FA012031
:1049F00010BD00BF38B50446C0680D4618B14FF071
:104A0000FF3100F039FA206918B14FF0FF3100F0A2
:104A100033FAE379E06865F3C713E37108B100F096
:104A200037FA206908B100F033FA012038BD00BF21
:104A300001460148FBF7C6BF2E59002000B5DFF83C
:104A40001CC083B001460F230022CDF800C00248ED
:104A5000FBF776FF03B000BD2E59002088500010F0
:104A60002DE9F04788460546FBF722FF012298F81A
:104A700004E0814698F905C005F12F40394F00F553
:104A8000600002FA0EF2000DBCF1000F57F8206032
:104A900002F1FF32CEF120043BDBA44503DC02FA35
:104AA0000CF3334207D04FF0FF344846FBF712FFB8
:104AB0002046BDE8F087D5F8683198F80740002B0C
:104AC00049D1630737D4644602FA0CF31E429A4672
:104AD00039D1BEF1000F12D0D8F8001001EB4E080A
:104AE000E64631F8023B0EF11202B3F5005F38BF23
:104AF000634441450EF1010E45F82230F1D146EAFA
:104B00000A0647F820604846FBF7E4FE2046BDE869
:104B1000F087BEF1200F02DD15E0013C13D302FA4D
:104B200004F33342A446F8D1D5F8681198F8073059
:104B3000A1B95B07C8D56FF00A044846FBF7CAFE67
:104B40002046BDE8F0876FF008044846FBF7C2FE38
:104B50002046BDE8F087E107B5D5ECE7D907B3D526
:104B6000E9E700BF64510020F0B59E46D0F86831F7
:104B70009DF81450D21A1F2A39D80C464EF28003E1
:104B80004EF29F014FF4003704EB440C002D08BF98
:104B9000194600EBCC0303F5435300EBCC0CBEF1FC
:104BA000050FDCF8DC60DCF8CC50DF600ED9530177
:104BB000AEF1050E43F0A0530532BEF1050FCCF85F
:104BC000DC3002F01F02CCF8D810F0D8520104EB10
:104BD000440442EA8E6300EBC402C2F8DC300020D9
:104BE000C2F8D810C2F8DC60C2F8CC50F0BD6FF04B
:104BF0000400F0BDF0B5012404FA01F5046824EACC
:104C000005040460A3B3D3E901561F68DC6801EB17
:104C1000410300EBC303C3F8C8704FEA410CC3F86B
:104C2000D060C3F8CC50C3F8DC400CEB01034FF06C
:104C3000013500EBC30C4FF0004600EBC30E01231F
:104C40000EF5865E0C1D01F108078D40CEF8106050
:104C500003FA04F4CEF8106002F01F028560BB4036
:104C600000F50050046003600020CCF8D820F0BDAF
:104C70004FF480374FF440264FF4F83501EB4104F0
:104C800000EBC404C4F8C8704FEA410CC4F8D0600B
:104C9000C4F8CC50C4F8DC30C7E700BF30B5840797
:104CA0008646034606D0A2B303F8011B980702F11B
:104CB000FF32F8D1032A26D95FFA81FC0F2A0CEBC8
:104CC0000C2C0CEB0C402AD922F00F0C9C44C3E9AD
:104CD0000000C3E9020010336345F8D112F00C0F55
:104CE00002F00F0517D04FEA950C1A460CF1FF346D
:104CF00003EB8C0C42F8040B6245FBD1043305F046
:104D0000030203EB840322B11A4403F8011B9A4205
:104D1000FBD1704630BD2A46002AF5D1F9E7154689
:104D2000E1E700BF844641EA000313F0030349D1E1
:104D3000403A23D30B6803604B6843608B68836001
:104D4000CB68C3600B6903614B6943618B69836105
:104D5000CB69C3610B6A03624B6A43628B6A8362ED
:104D6000CB6AC3620B6B03634B6B43638B6B8363D5
:104D7000CB6BC36340304031403ADBD230320BD38F
:104D80000B6803604B6843608B688360CB68C360CB
:104D900010301031103AF3D20C3205D351F8043BE5
:104DA00040F8043B043AF9D2043208D0D2071CBFC1
:104DB00011F8013B00F8013B01D30B8803806046EA
:104DC000704700BF082A13D38B07B1D010F003033C
:104DD000AED0C3F10403D21ADB071CBF11F8013BAC
:104DE00000F8013BA4D331F8023B20F8023B9FE7D7
:104DF000043AD9D3013A11F8013B00F8013BF9D24A
:104E00000B7803704B7843708B78837060467047E3
:104E100020F0030110F00300C0F1000051F8043B42
:104E200000F1040C4FEACC0C6FF000021CBF22FA18
:104E30000CF213434FF0010C4CEA0C2C4CEA0C4CD6
:104E4000A3EB0C0222EA030212EACC1204BF51F8CF
:104E5000043B0430F4D0C2F1000102EA0102B2FACC
:104E600082F2C2F11F0200EBD2007047F8B500BF1A
:104E70005FF800F07D0A00205FF800F035020020A6
:104E80005FF800F0550A00205FF800F0F90A0020F2
:104E90005FF800F06D0200205FF800F0A90200202A
:104EA0005FF800F0B10A00205FF800F0CD010020AB
:104EB0005FF800F011010020AD1D0010251D00104D
:104EC000551D0010411E00108D1D0010AD1C00105E
:104ED000D51D0010991C0010AD100010D91D001038
:104EE0006D140010F51C0010C11D0010711D001084
:104EF000510A0010790A0010CD270010110200108D
:104F00004661696C656420746F20696E69746961BB
:104F10006C697A6520444D4100000000526573655C
:104F20007474696E672E2E2E000000000A2A2A2A49
:104F30002050414E4943202A2A2A0A000A00000034
:104F40004E6F207370696E6C6F636B732061726556
:104F500020617661696C61626C6500004E6F20753E
:104F600073657220495251732061726520617661C8
:104F7000696C61626C65000048617264776172659A
:104F800020616C61726D20256420616C72656164C2
:104F90007920636C61696D6564000000486172642A
:104FA000206173736572740052656C65617365008E
:104FB000626F6F74325F77323571303830000000C5
:104FC000302E3100322E322E300000007069636FB7
:104FD000320000007069636F5F626F6F7479000068
:104FE000417567203135203230323600555342202A
:104FF000737464696E202F207374646F757400007D
:10500000526173706265727279205069000000000D
:105010005069636F00000000426F61726420434476
:10502000430000005265736574000000556E6861AE
:105030006E646C65642049525120307825780A00EE
:10504000657020253032582077617320616C72655D
:1050500061647920617661696C61626C6500000051
:1050600043616E277420636F6E74696E7565207876
:10507000666572206F6E20696E6163746976652063
:1050800065702025303258004E6F20444D4120631A
:1050900068616E6E656C732061726520617661690E
:1050A0006C61626C65000000B050001009FF0101E6
:1050B0002BA08A2080F00820C300808008609FFE1B
:1050C0008920000006005250D3F07542A84F00100E
:1050D00006005250E182887FB04F00100600525007
:1050E0003ABCA911C04F001006005250ABB3605338
:1050F000C44F001006005250BBFF3CB6CC4F00100E
:1051000006005250861C0302D44F00100600525075
:105110005422A29DE04F001005005250DE65F46855
:10512000FC9E00100D0A0000000000002522001067
:10513000000000002922001035220010612200101A
:105140005D220010000000000A00000000000306BD
:10515000A6000800020002009C001400030057494A
:105160004E55534200000000000000000000800087
:105170000400010028004400650076006900630017
:10518000650049006E0074006500720066006100F1
:1051900063006500470055004900440000004E00D0
:1051A0007B00620063003700330039003800630081
:1051B00031002D0037003300630064002D003400FF
:1051C0006300620037002D003900380062003800AB
:1051D0002D003900310033006100380066006300A3
:1051E000610037006200660036007D0000000000AC
:1051F000050F2100011C100500DF60DDD88945C7BF
:105200004C9CD2659D9E648A9F00000306A6000107
:10521000000000000600525053B4F4A1EC4F0010FF
:105220000000000000500010105000101C59002019
:10523000185000102450001009025400030100808F
:105240007D080B00020202000009040000010202B6
:1052500000040524002001052401000104240206A5
:105260000524060001070581030800100904010058
:10527000020A000000070502024000000705820242
:105280004000000904020000FF00010512011002A5
:10529000EF0201408A2E0900000101020301000013
:1052A00000000000193C00108D3C0010BD3C0010B7
:1052B0000D3D0010DD3D0010AD3E0010000000006F
:1052C00000000000A53F0010014000101D4000102C
:1052D00041400010B92200103541001000000000CC
:0852E00044FAFF7F0100000009
:1052E800C4500010D0500010DC500010E8500010DE
:1052F800F4500010005100100C510010185100100B
:04530800145200102B
:10530C00034600B50268EFF3108C72B6D2E8CFEF0B
:10531C000120BEF1000FF9D1C2E84E0FBEF1000F13
:10532C00F4D1BFF35F8F93F90420002A09DB01B19C
:10533C000A60002000221B68C3E88F2F8CF31088B2
:10534C0000BD4FF05042126801201A71F2E700BF05
:10535C004FF050412DE9F0411F460B6804461646AC
:10536C000025984608E0C3E88F5F82F3108830462A
:10537C00394600F029FEE8B92368EFF3108272B6C3
:10538C00D3E8CF0F01210028FAD1C3E8401F002831
:10539C00F6D1BFF35F8F94F9041023680029E2DA89
:1053AC00002184F80480C3E88F1F82F31088012049
:1053BC00BDE8F0810020BDE8F08100BF10B50168A8
:1053CC00EFF3108E72B6D1E8CFCF0124BCF1000FF1
:1053DC00F9D1C1E84C4FBCF1000FF4D1BFF35F8F92
:1053EC0090F904C00468BCF1000F10DB0021C4E884
:1053FC008F1F8EF310884FF0504494F90040644591
:10540C0001D1084610BDBDE81040FFF7A1BF4FF019
:10541C005042126800230271C4E88F3F8EF310884B
:10542C00012010BD70B505460C4600F0B9FD0246D2
:10543C000B464FF47A704FF0FF3E6FF0004CE4FBDC
:10544C00002396457CEB030138BF72462846BDE825
:10545C00704038BF6346FFF77BBF00BF0368EFF3B4
:10546C00108272B6D3E8CFCF0121BCF1000FF9D175
:10547C00C3E84C1FBCF1000FF4D1BFF35F8F4FF0AA
:10548C00FF0C0023016880F804C0C1E88F3F82F351
:10549C00108840BF704700BF002108B5134B4FF474
:1054AC00707299601248D960196159619961D9611A
:1054BC00196259629962D962196359639963D96304
:1054CC00196459649964D964196559659965D965E4
:1054DC00196659669966D966196759679967D967C4
:1054EC0000F06EFD034B044A1A6008BD000010501A
:1054FC00F0540020BC580020800110502DE9F047DA
:10550C001E4B84B0D3F858A0BAF1000F21D0002460
:10551C0001254FF4E069DFF86C80194F05E0013488
:10552C00E4B2202C4FEA450513D01AEA050FF6D049
:10553C00E34304F0FE0603F001031E4407EB46169A
:10554C003046C8F8585000F001FC28B93AEA050A70
:10555C00E5D104B0BDE8F087B378F28A8DF8083055
:10556C00002301A80121ADF8049003928DF80930B5
:10557C0000F00AFC304600F08DFBE7E7000011500C
:10558C00B05400200030115070B5B24B86B0D3F837
:10559C00984014F4003574D0AF4AB04B906A93F82D
:1055AC003B20AF49022A086000F0E680002593F802
:1055BC007B20022A00F0B28193F8BB20022A00F073
:1055CC00A28193F8FB20022A00F0928193F83B21F0
:1055DC00022A00F0818193F87B21022A00F071816C
:1055EC0093F8BB21022A00F0618193F8FB21022A77
:1055FC0000F0508193F83B22022A00F03F8193F88F
:10560C007B22022A00F01A8193F8BB22022A00F0B6
:10561C00098193F8FB22022A00F0F88093F83B23CF
:10562C00022A00F0E78093F87B23022A00F0B7806F
:10563C0093F8BB23022A00F07C8193F8FB23022A07
:10564C0000F0C7803DB9874B1B7823B94FF400326B
:10565C00854BC3F890204FF440727E4B01219B6C1C
:10566C0003A8C3F30A030493ADF80C2000F08CFBE1
:10567C00E3064FF400357D4E07D5FFF73FFF354667
:10568C0003E0E3064FF01006F7D4E0031DD5734892
:10569C000226837E45F4803533BB4FF00103012E87
:1056AC00C37000F120001BD14FF4C062704BADF8F9
:1056BC000C2093E80300CDE90401314603A800F067
:1056CC0063FB4FF40032684B1A65E1043ED462046C
:1056DC002ED423041DD4A54240F0BB8106B070BD6E
:1056EC00837E0126002BD8D0624B5A4A1E66536E1D
:1056FC0036EA0303FBD14FF440520021019000F035
:10570C00CFFA019800F0C6FA574B01985E661E66F8
:10571C00C3E74FF4A063012103A8ADF80C3000F0EF
:10572C0033FB4FF40062504B45F400451A65D2E749
:10573C004FF48063012103A8ADF80C3000F024FB7A
:10574C001022494B45F480451A65C2E70026414BAF
:10575C0045F480551E60FFF79FFE4FF480730121C6
:10576C0003A8ADF80C308DF8106000F00DFB4FF471
:10577C0000223D4B1A65AAE793F83A50002D3FF4EE
:10578C0016AF93F83C20002A3FF411AF002203F12E
:10579C00200083F83C2000F0A7FA304B07E793F881
:1057AC007A63002E3FF444AF93F87C23002A40F038
:1057BC00408193F8BB23022A40F0C48093F8BA23AB
:1057CC00002A40F0BB8093F8FB23022A7FF443AFFE
:1057DC00354693F8FA23002A3FF434AF93F8FC23B0
:1057EC00002A3FF438AF0022234883F8FC2300F052
:1057FC007BFA30E793F83A63002E3FF414AF93F83A
:10580C003C23002A40F0A98035460CE793F8FA6255
:10581C00002E3FF403AF93F8FC22002A40F0AF8037
:10582C003546FBE693F8BA62002E3FF4F2AE93F8DD
:10583C00BC22002A40F09A803546EAE693F87A6258
:10584C00002E3FF4E1AE93F87C22002A40F0CD808C
:10585C003546D9E60000115000000B40B054002032
:10586C00A8540020315900200030115010000200C3
:10587C0000001050002011509058002093F83A620C
:10588C00002E3FF4BCAE93F83C22002A40F0A480DA
:10589C003546B4E693F8FA61002E3FF4ABAE93F8BC
:1058AC00FC21002A40F08F803546A3E693F8BA61BC
:1058BC00002E3FF49AAE93F8BC21002A7AD13546DB
:1058CC0093E693F87A61002E3FF48AAE93F87C212C
:1058DC00002A66D1354683E693F83A61002E3FF4F0
:1058EC007AAE93F83C21002A40F09180354672E65E
:1058FC0093F8FA60002E3FF469AE93F8FC20002A6E
:10590C007CD1354662E693F8BA60002E3FF459AE6E
:10591C0093F8BC20002A3BD1354652E693F87A60C6
:10592C00002E3FF449AE93F87C20002A78D13546FE
:10593C0042E693F8BA23002A3FF47FAE93F8BC23D7
:10594C00002A7ED193F8FB23022A7FF484AE93F8CD
:10595C00FA23002A3FF47FAE40E700223F4883F849
:10596C003C23354600F0C0F93D4B5CE600223D4837
:10597C0083F8BC22354600F0B7F9394B49E60022D2
:10598C00394883F8FC22354600F0AEF9344B45E635
:10599C000022364883F8BC20354600F0A5F9304B80
:1059AC000FE60022324883F87C21354600F09CF942
:1059BC002B4B15E600222F4883F8BC21354600F00E
:1059CC0093F9274B11E600222B4883F8FC2135462E
:1059DC0000F08AF9224B0DE60022284883F83C227D
:1059EC00354600F081F91E4B09E60022244883F865
:1059FC007C22354600F078F9194B05E60022214847
:105A0C0083F8FC20354600F06FF9154BDEE50022DB
:105A1C001D4883F83C21354600F066F9104BDAE559
:105A2C0000221A4883F87C20354600F05DF90C4BB7
:105A3C00C2E50022164883F87C2300F055F9084B88
:105A4C00B7E60022134883F8BC2300F04DF9044B51
:105A5C0078E7114885EA040100F0AAFAD057002033
:105A6C00B054002050570020905700205055002073
:105A7C00105600205056002090560020D056002082
:105A8C001057002090550020D055002010550020B4
:105A9C0010580020505800202C5000102DE9F043D5
:105AAC00828AB0F818E003469645C07828BF96461F
:105ABC00041E18BF012480F001000D46A2EB0E025B
:105ACC005978D87092B24EF480609A8240EA443091
